{
  "transactions": [
    {
      "hash": "0xe748674c9b2dd1fd174584a22a67047b7d4db13e8d768aa3ed5c8c01293816df",
      "transactionType": "CREATE2",
      "contractName": "RGBSignatures",
      "contractAddress": "0x00000000e90a40c60b36a88c0e220572dc8be4e1",
      "function": null,
      "arguments": [
        "0xf3e2399c5D1C698A6C1dfa195ADbd12a6AfD1899",
        "4000000000000000",
        "1000000000000000",
        "0xcdf5228c53998d24176Bea664c11dFFE7b401d19",
        "0xc1b5e21037602577a7c1df76cca738965a6c40c5d1022309c27b43b3caa6db52"
      ],
      "transaction": {
        "from": "0xf3e2399c5d1c698a6c1dfa195adbd12a6afd1899",
        "to": "0x4e59b44847b379578588920ca78fbf26c0b4956c",
        "gas": "0x3df8ae",
        "value": "0x0",
        "input": "0xf3e2399c5d1c698a6c1dfa195adbd12a6afd1899f54a1cdf2c1f70f99f095052608060405234801561000f575f80fd5b506040516133f63803806133f683398101604081905261002e9161014a565b6040805180820182526003808252622923a160e91b602080840182905284518086019095529184529083015286915f6100678382610236565b5060016100748282610236565b5050506001600160a01b0381166100a457604051631e4fbdf760e01b81525f600482015260240160405180910390fd5b6100ad816100e2565b50600b93909355600c91909155600d80546001600160a01b0319166001600160a01b03909216919091179055600e55506102f5565b600a80546001600160a01b038381166001600160a01b0319831681179093556040519116919082907f8be0079c531659141344cd1fd0a4f28419497f9722a3daafe3b4186f6b6457e0905f90a35050565b6001600160a01b0381168114610147575f80fd5b50565b5f805f805f60a0868803121561015e575f80fd5b855161016981610133565b809550506020860151935060408601519250606086015161018981610133565b80925050608086015190509295509295909350565b634e487b7160e01b5f52604160045260245ffd5b600181811c908216806101c657607f821691505b6020821081036101e457634e487b7160e01b5f52602260045260245ffd5b50919050565b601f82111561023157805f5260205f20601f840160051c8101602085101561020f5750805b601f840160051c820191505b8181101561022e575f815560010161021b565b50505b505050565b81516001600160401b0381111561024f5761024f61019e565b6102638161025d84546101b2565b846101ea565b602080601f831160018114610296575f841561027f5750858301515b5f19600386901b1c1916600185901b1785556102ed565b5f85815260208120601f198616915b828110156102c4578886015182559484019460019091019084016102a5565b50858210156102e157878501515f19600388901b60f8161c191681555b505060018460011b0185555b505050505050565b6130f4806103025f395ff3fe6080604052600436106101fc575f3560e01c8063537924ef11610113578063b31b0eac1161009d578063e6f12af91161006d578063e6f12af914610611578063e74b981b14610624578063e8a3d48514610643578063e985e9c514610657578063f2fde38b14610676575f80fd5b8063b31b0eac1461059f578063b88d4fde146105be578063bdb4b848146105dd578063c87b56dd146105f2575f80fd5b80637284e416116100e35780637284e416146104e85780637cb64759146105305780638da5cb5b1461054f57806395d89b411461056c578063a22cb46514610580575f80fd5b8063537924ef146104775780636352211e1461049657806370a08231146104b5578063715018a6146104d4575f80fd5b806323b872dd1161019457806330b42ec21161016457806330b42ec21461039557806342842e0e146103c357806346904840146103e25780634f6ccce71461040157806352fa270d14610420575f80fd5b806323b872dd146103225780632db5b8e7146103415780632eb4a7ab146103615780632f745c5914610376575f80fd5b8063095ea7b3116101cf578063095ea7b3146102af5780630c7453ff146102d05780631498cfae146102ef57806318160ddd1461030e575f80fd5b806301ffc9a7146102005780630459bcac1461023457806306fdde0314610257578063081812fc14610278575b5f80fd5b34801561020b575f80fd5b5061021f61021a366004611f76565b610695565b60405190151581526020015b60405180910390f35b34801561023f575f80fd5b50610249600c5481565b60405190815260200161022b565b348015610262575f80fd5b5061026b6106bf565b60405161022b9190611fbf565b348015610283575f80fd5b50610297610292366004611fd1565b61074e565b6040516001600160a01b03909116815260200161022b565b3480156102ba575f80fd5b506102ce6102c9366004611ffc565b610775565b005b3480156102db575f80fd5b506102ce6102ea366004612026565b610784565b3480156102fa575f80fd5b50610249610309366004612056565b610797565b348015610319575f80fd5b50600854610249565b34801561032d575f80fd5b506102ce61033c366004612096565b6107b8565b61035461034f3660046120d4565b610846565b60405161022b91906120ed565b34801561036c575f80fd5b50610249600e5481565b348015610381575f80fd5b50610249610390366004611ffc565b610943565b3480156103a0575f80fd5b5061021f6103af366004612124565b600f6020525f908152604090205460ff1681565b3480156103ce575f80fd5b506102ce6103dd366004612096565b6109a6565b3480156103ed575f80fd5b50600d54610297906001600160a01b031681565b34801561040c575f80fd5b5061024961041b366004611fd1565b6109c5565b34801561042b575f80fd5b5061045361043a366004611fd1565b60ff601082901c811692600883901c8216929190911690565b6040805160ff9485168152928416602084015292169181019190915260600161022b565b348015610482575f80fd5b5061024961049136600461213f565b610a1a565b3480156104a1575f80fd5b506102976104b0366004611fd1565b610afd565b3480156104c0575f80fd5b506102496104cf366004612124565b610b07565b3480156104df575f80fd5b506102ce610b4c565b3480156104f3575f80fd5b5061026b6040518060400160405280601d81526020017f31362c3737372c323136206f6e636861696e207267622076616c75657300000081525081565b34801561053b575f80fd5b506102ce61054a366004611fd1565b610b5f565b34801561055a575f80fd5b50600a546001600160a01b0316610297565b348015610577575f80fd5b5061026b610b6c565b34801561058b575f80fd5b506102ce61059a3660046121ae565b610b7b565b3480156105aa575f80fd5b506102496105b93660046121e9565b610b86565b3480156105c9575f80fd5b506102ce6105d8366004612250565b610ba5565b3480156105e8575f80fd5b50610249600b5481565b3480156105fd575f80fd5b5061026b61060c366004611fd1565b610bbd565b61024961061f366004612056565b610c99565b34801561062f575f80fd5b506102ce61063e366004612124565b610ce0565b34801561064e575f80fd5b5061026b610d0a565b348015610662575f80fd5b5061021f610671366004612329565b610d6f565b348015610681575f80fd5b506102ce610690366004612124565b610d9c565b5f6001600160e01b0319821663780e9d6360e01b14806106b957506106b982610dd9565b92915050565b60605f80546106cd90612355565b80601f01602080910402602001604051908101604052809291908181526020018280546106f990612355565b80156107445780601f1061071b57610100808354040283529160200191610744565b820191905f5260205f20905b81548152906001019060200180831161072757829003601f168201915b5050505050905090565b5f61075882610e28565b505f828152600460205260409020546001600160a01b03166106b9565b610780828233610e60565b5050565b61078c610e6d565b600b91909155600c55565b62ff0000601084901b1661ff00600884901b161760ff8216175b9392505050565b6001600160a01b0382166107e657604051633250574960e11b81525f60048201526024015b60405180910390fd5b5f6107f2838333610e9a565b9050836001600160a01b0316816001600160a01b031614610840576040516364283d7b60e01b81526001600160a01b03808616600483015260248201849052821660448201526064016107dd565b50505050565b60608160ff16600c5461085991906123a1565b341015610893578160ff16600c5461087191906123a1565b60405162fae2d560e21b815260048101919091523460248201526044016107dd565b8160ff1667ffffffffffffffff8111156108af576108af61223c565b6040519080825280602002602001820160405280156108d8578160200160208202803683370190505b5090505f5b8260ff168160ff161015610935575f805f6108f784610f6d565b92509250925061090a838383333361101a565b858560ff168151811061091f5761091f6123b8565b60209081029190910101525050506001016108dd565b5061093e611090565b919050565b5f61094d83610b07565b821061097e5760405163295f44f760e21b81526001600160a01b0384166004820152602481018390526044016107dd565b506001600160a01b03919091165f908152600660209081526040808320938352929052205490565b6109c083838360405180602001604052805f815250610ba5565b505050565b5f6109cf60085490565b82106109f75760405163295f44f760e21b81525f6004820152602481018390526044016107dd565b60088281548110610a0a57610a0a6123b8565b905f5260205f2001549050919050565b604080513360208201525f9182910160408051601f1981840301815282825280516020918201209083015201604051602081830303815290604052805190602001209050610a6c8484600e5484611101565b610a89576040516378a7f5cf60e11b815260040160405180910390fd5b335f908152600f602052604090205460ff1615610abb5760405163d6c772ff60e01b81523360048201526024016107dd565b335f908152600f60205260408120805460ff191660011790558080610adf81610f6d565b925092509250610af2838383333361101a565b979650505050505050565b5f6106b982610e28565b5f6001600160a01b038216610b31576040516322718ad960e21b81525f60048201526024016107dd565b506001600160a01b03165f9081526003602052604090205490565b610b54610e6d565b610b5d5f611118565b565b610b67610e6d565b600e55565b6060600180546106cd90612355565b610780338383611169565b5f610b8f610e6d565b610b9c858585338661101a565b95945050505050565b610bb08484846107b8565b6108403385858585611207565b6060610bc882610e28565b5060ff601083901c811690600884901c8116908416610be68361132f565b610bf28360ff1661132f565b610bfe8360ff1661132f565b6040518060400160405280601d81526020017f31362c3737372c323136206f6e636861696e207267622076616c756573000000815250610c45610c408a6113bf565b61170c565b610c518860ff1661132f565b610c5d8860ff1661132f565b610c698860ff1661132f565b604051602001610c809897969594939291906123e3565b6040516020818303038152906040529350505050919050565b5f600b54341015610cc957600b5460405162fae2d560e21b815260048101919091523460248201526044016107dd565b610cd6848484333361101a565b90506107b1611090565b610ce8610e6d565b600d80546001600160a01b0319166001600160a01b0392909216919091179055565b6060610d146106bf565b6040518060400160405280601d81526020017f31362c3737372c323136206f6e636861696e207267622076616c756573000000815250604051602001610d5b929190612579565b604051602081830303815290604052905090565b6001600160a01b039182165f90815260056020908152604080832093909416825291909152205460ff1690565b610da4610e6d565b6001600160a01b038116610dcd57604051631e4fbdf760e01b81525f60048201526024016107dd565b610dd681611118565b50565b5f6001600160e01b031982166380ac58cd60e01b1480610e0957506001600160e01b03198216635b5e139f60e01b145b806106b957506301ffc9a760e01b6001600160e01b03198316146106b9565b5f818152600260205260408120546001600160a01b0316806106b957604051637e27328960e01b8152600481018490526024016107dd565b6109c08383836001611732565b600a546001600160a01b03163314610b5d5760405163118cdaa760e01b81523360048201526024016107dd565b5f80610ea7858585611836565b90506001600160a01b038116610f0357610efe84600880545f838152600960205260408120829055600182018355919091527ff3f7a9fe364faab93b216da50a3214154f22a0a2b415b23a84c8169e8b636ee30155565b610f26565b846001600160a01b0316816001600160a01b031614610f2657610f268185611928565b6001600160a01b038516610f4257610f3d846119a5565b610f65565b846001600160a01b0316816001600160a01b031614610f6557610f658585611a4c565b949350505050565b5f805f80443386604051602001610fb69392919092835260609190911b6bffffffffffffffffffffffff1916602083015260f81b6001600160f81b031916603482015260350190565b60408051601f1981840301815291905280516020909101209050610fdc61010082612e40565b9350610100610feb8183612e53565b610ff59190612e40565b92506101006110076201000083612e53565b6110119190612e40565b93959294505050565b5f611026868686610797565b90506110328282611a9a565b807f5a3e96f397e68b20a43c25f664b628805b877334dadfcc925c6c1a3ad43404588461105e60085490565b604080516001600160a01b0390931683526020830191909152429082015260600160405180910390a295945050505050565b600d546040515f916001600160a01b03169047908381818185875af1925050503d805f81146110da576040519150601f19603f3d011682016040523d82523d5f602084013e6110df565b606091505b5050905080610dd657604051634033e4e360e01b815260040160405180910390fd5b5f8261110e868685611afb565b1495945050505050565b600a80546001600160a01b038381166001600160a01b0319831681179093556040519116919082907f8be0079c531659141344cd1fd0a4f28419497f9722a3daafe3b4186f6b6457e0905f90a35050565b6001600160a01b03821661119b57604051630b61174360e31b81526001600160a01b03831660048201526024016107dd565b6001600160a01b038381165f81815260056020908152604080832094871680845294825291829020805460ff191686151590811790915591519182527f17307eab39ab6107e8899845ad3d59bd9653f200f220920489ca2b5937696c31910160405180910390a3505050565b6001600160a01b0383163b1561132857604051630a85bd0160e11b81526001600160a01b0384169063150b7a0290611249908890889087908790600401612e66565b6020604051808303815f875af1925050508015611283575060408051601f3d908101601f1916820190925261128091810190612ea2565b60015b6112ea573d8080156112b0576040519150601f19603f3d011682016040523d82523d5f602084013e6112b5565b606091505b5080515f036112e257604051633250574960e11b81526001600160a01b03851660048201526024016107dd565b805181602001fd5b6001600160e01b03198116630a85bd0160e11b1461132657604051633250574960e11b81526001600160a01b03851660048201526024016107dd565b505b5050505050565b60605f61133b83611b3c565b60010190505f8167ffffffffffffffff81111561135a5761135a61223c565b6040519080825280601f01601f191660200182016040528015611384576020820181803683370190505b5090508181016020015b5f19016f181899199a1a9b1b9c1cb0b131b232b360811b600a86061a8153600a850494508461138e57509392505050565b60606113c9611f42565b5f5b60188160ff16101561142057836001166001146113e8575f6113eb565b60015b826113f7836017612ebd565b60ff166018811061140a5761140a6123b8565b91151560209092020152600193841c93016113cb565b5060408051610140810182525f60a0808301828152600160c0850152600260e085015260036101008501526004610120850152835283518082018552600f81526010602082810191909152601182870152601260608084019190915260056080808501919091528287019390935286518085018852600e81526017818401526018818901526013818301526006818501528688015286518085018852600d81526016818401526015818901526014818301526007818501528187015286518085018852600c8152600b81840152600a81890152600991810191909152600881840152918501919091528451918201909452607280825292939192909161304d9083013990505f5b60058160ff1610156116fa575f5b60058160ff1610156116f1575f848360ff1660058110611557576115576123b8565b60200201518260ff1660058110611570576115706123b8565b602002015190506060808260ff166018036115ca5760405180604001604052806005815260200164626c61636b60d81b815250915060405180604001604052806005815260200164776869746560d81b81525090506116b2565b878360ff16601881106115df576115df6123b8565b602002015161160b5760405180604001604052806005815260200164626c61636b60d81b81525061162a565b60405180604001604052806005815260200164776869746560d81b8152505b91508360ff168560ff1614801561164557508460ff16600314155b61164f57816116af565b878360ff1660188110611664576116646123b8565b60200201516116905760405180604001604052806005815260200164776869746560d81b8152506116af565b60405180604001604052806005815260200164626c61636b60d81b8152505b90505b856116bf86868585611c13565b6040516020016116d0929190612ed6565b60405160208183030381529060405295505050508080600101915050611535565b50600101611527565b5080604051602001610c809190612eea565b60606106b98260405180606001604052806040815260200161300d604091396001611cd9565b808061174657506001600160a01b03821615155b15611807575f61175584610e28565b90506001600160a01b038316158015906117815750826001600160a01b0316816001600160a01b031614155b801561179457506117928184610d6f565b155b156117bd5760405163a9fbf51f60e01b81526001600160a01b03841660048201526024016107dd565b81156118055783856001600160a01b0316826001600160a01b03167f8c5be1e5ebec7d5bd14f71427d1e84f3dd0314c0f7b2291e5b200ac8c7c3b92560405160405180910390a45b505b50505f90815260046020526040902080546001600160a01b0319166001600160a01b0392909216919091179055565b5f828152600260205260408120546001600160a01b039081169083161561186257611862818486611e54565b6001600160a01b0381161561189c5761187d5f855f80611732565b6001600160a01b0381165f90815260036020526040902080545f190190555b6001600160a01b038516156118ca576001600160a01b0385165f908152600360205260409020805460010190555b5f8481526002602052604080822080546001600160a01b0319166001600160a01b0389811691821790925591518793918516917fddf252ad1be2c89b69c2b068fc378daa952ba7f163c4a11628f55a4df523b3ef91a4949350505050565b5f61193283610b07565b5f838152600760209081526040808320546001600160a01b0388168452600690925290912091925090818314611987575f83815260208281526040808320548584528184208190558352600790915290208290555b5f938452600760209081526040808620869055938552525081205550565b6008545f906119b690600190612f0b565b5f83815260096020526040812054600880549394509092849081106119dd576119dd6123b8565b905f5260205f200154905080600883815481106119fc576119fc6123b8565b5f918252602080832090910192909255828152600990915260408082208490558582528120556008805480611a3357611a33612f1e565b600190038181905f5260205f20015f9055905550505050565b5f6001611a5884610b07565b611a629190612f0b565b6001600160a01b039093165f908152600660209081526040808320868452825280832085905593825260079052919091209190915550565b6001600160a01b038216611ac357604051633250574960e11b81525f60048201526024016107dd565b5f611acf83835f610e9a565b90506001600160a01b038116156109c0576040516339e3563760e11b81525f60048201526024016107dd565b5f81815b84811015611b3357611b2982878784818110611b1d57611b1d6123b8565b90506020020135611eb8565b9150600101611aff565b50949350505050565b5f8072184f03e93ff9f4daa797ed6e38ed64bf6a1f0160401b8310611b7a5772184f03e93ff9f4daa797ed6e38ed64bf6a1f0160401b830492506040015b6d04ee2d6d415b85acef81000000008310611ba6576d04ee2d6d415b85acef8100000000830492506020015b662386f26fc100008310611bc457662386f26fc10000830492506010015b6305f5e1008310611bdc576305f5e100830492506008015b6127108310611bf057612710830492506004015b60648310611c02576064830492506002015b600a83106106b95760010192915050565b60408051602081019091525f808252606091905b60038160ff161015611ccf575f5b60038160ff161015611cc6575f8260ff166001148015611c5857508160ff166001145b611c625786611c64565b855b905083611c8883611c768b6003612f32565b611c809190612f55565b60ff1661132f565b611c9785611c768d6003612f32565b83604051602001611cab9493929190612f6e565b60408051601f19818403018152919052935050600101611c35565b50600101611c27565b5095945050505050565b606083515f03611cf7575060408051602081019091525f81526107b1565b5f82611d2757600385516004611d0d91906123a1565b611d18906002612ff9565b611d229190612e53565b611d4c565b600385516002611d379190612ff9565b611d419190612e53565b611d4c9060046123a1565b90505f8167ffffffffffffffff811115611d6857611d6861223c565b6040519080825280601f01601f191660200182016040528015611d92576020820181803683370190505b509050600185016020820187885189016020810180515f82525b82841015611e07576003840193508351603f8160121c168701518653600186019550603f81600c1c168701518653600186019550603f8160061c168701518653600186019550603f8116870151865350600185019450611dac565b905250508515611e4857600388510660018114611e2b5760028114611e3e57611e46565b603d6001830353603d6002830353611e46565b603d60018303535b505b50909695505050505050565b611e5f838383611ee1565b6109c0576001600160a01b038316611e8d57604051637e27328960e01b8152600481018290526024016107dd565b60405163177e802f60e01b81526001600160a01b0383166004820152602481018290526044016107dd565b5f818310611ed2575f8281526020849052604090206107b1565b505f9182526020526040902090565b5f6001600160a01b03831615801590610f655750826001600160a01b0316846001600160a01b03161480611f1a5750611f1a8484610d6f565b80610f655750505f908152600460205260409020546001600160a01b03908116911614919050565b6040518061030001604052806018906020820280368337509192915050565b6001600160e01b031981168114610dd6575f80fd5b5f60208284031215611f86575f80fd5b81356107b181611f61565b5f81518084528060208401602086015e5f602082860101526020601f19601f83011685010191505092915050565b602081525f6107b16020830184611f91565b5f60208284031215611fe1575f80fd5b5035919050565b6001600160a01b0381168114610dd6575f80fd5b5f806040838503121561200d575f80fd5b823561201881611fe8565b946020939093013593505050565b5f8060408385031215612037575f80fd5b50508035926020909101359150565b803560ff8116811461093e575f80fd5b5f805f60608486031215612068575f80fd5b61207184612046565b925061207f60208501612046565b915061208d60408501612046565b90509250925092565b5f805f606084860312156120a8575f80fd5b83356120b381611fe8565b925060208401356120c381611fe8565b929592945050506040919091013590565b5f602082840312156120e4575f80fd5b6107b182612046565b602080825282518282018190525f9190848201906040850190845b81811015611e4857835183529284019291840191600101612108565b5f60208284031215612134575f80fd5b81356107b181611fe8565b5f8060208385031215612150575f80fd5b823567ffffffffffffffff80821115612167575f80fd5b818501915085601f83011261217a575f80fd5b813581811115612188575f80fd5b8660208260051b850101111561219c575f80fd5b60209290920196919550909350505050565b5f80604083850312156121bf575f80fd5b82356121ca81611fe8565b9150602083013580151581146121de575f80fd5b809150509250929050565b5f805f80608085870312156121fc575f80fd5b61220585612046565b935061221360208601612046565b925061222160408601612046565b9150606085013561223181611fe8565b939692955090935050565b634e487b7160e01b5f52604160045260245ffd5b5f805f8060808587031215612263575f80fd5b843561226e81611fe8565b9350602085013561227e81611fe8565b925060408501359150606085013567ffffffffffffffff808211156122a1575f80fd5b818701915087601f8301126122b4575f80fd5b8135818111156122c6576122c661223c565b604051601f8201601f19908116603f011681019083821181831017156122ee576122ee61223c565b816040528281528a6020848701011115612306575f80fd5b826020860160208301375f60208483010152809550505050505092959194509250565b5f806040838503121561233a575f80fd5b823561234581611fe8565b915060208301356121de81611fe8565b600181811c9082168061236957607f821691505b60208210810361238757634e487b7160e01b5f52602260045260245ffd5b50919050565b634e487b7160e01b5f52601160045260245ffd5b80820281158282048414176106b9576106b961238d565b634e487b7160e01b5f52603260045260245ffd5b5f81518060208401855e5f93019283525090919050565b7f646174613a6170706c69636174696f6e2f6a736f6e3b757466382c7b226e616d8152670ca447444e4cec4560c31b60208201525f612425602883018b6123cc565b600b60fa1b80825261243a600183018c6123cc565b908152905061244c600182018a6123cc565b71149116113232b9b1b934b83a34b7b7111d1160711b8152905061247360128201896123cc565b90507f222c22696d616765223a22646174613a696d6167652f7376672b786d6c3b62618152641cd94d8d0b60da1b60208201526124b360258201886123cc565b7f222c2261747472696275746573223a5b7b2274726169745f74797065223a227281526a1116113b30b63ab2911d1160a91b602082015290506124f9602b8201876123cc565b7f227d2c7b2274726169745f74797065223a2267222c2276616c7565223a2200008152905061252b601e8201866123cc565b7f227d2c7b2274726169745f74797065223a2262222c2276616c7565223a2200008152905061255d601e8201856123cc565b63227d5d7d60e01b81526004019b9a5050505050505050505050565b7f646174613a6170706c69636174696f6e2f6a736f6e3b757466382c7b226e616d81526332911d1160e11b60208201525f6125b760248301856123cc565b701116113232b9b1b934b83a34b7b7111d1160791b81526125db60118201856123cc565b90507f222c22696d616765223a22646174613a696d6167652f7376672b786d6c3b626181527f736536342c50484e325a79423361575230614430694d5441774d43496761475660208201527f705a326830505349784d4441774969423261575633516d39345053497749444160408201527f674d5441774d4341784d4441774969426d6157787350534a756232356c49694260608201527f3462577875637a30696148523063446f764c336433647935334d793576636d6360808201527f764d6a41774d43397a646d6369506a78795a574e30494864705a48526f50534960a08201527f784d4441774969426f5a576c6e61485139496a45774d44416949475a7062477760c08201527f39496e646f6158526c4969382b50484a6c59335167654430694d6a557749694260e08201527f355053497a4e544169494864705a48526f505349784d4441694947686c6157646101008201527f6f644430694d5441774969426d615778735053496a4d444247526a4177496938806101208301527f2b50484a6c59335167654430694d6a557749694235505349304e5441694948646101408301527f705a48526f505349784d4441694947686c6157646f644430694d544177496942806101608401527f6d615778735053496a4d444247526a41774969382b50484a6c593351676544306101808401527f694d6a557749694235505349314e544169494864705a48526f505349784d44416101a08401527f694947686c6157646f644430694d5441774969426d615778735053496a4d44426101c08401527f47526a41774969382b50484a6c59335167654430694d6a5577496942355053496101e08401527f324e544169494864705a48526f505349784d4441694947686c6157646f644430806102008501527f694d5441774969426d615778735053496a4d444247526a41774969382b50484a806102208601527f6c59335167654430694d7a557749694235505349794e544169494864705a48526102408601527f6f505349784d4441694947686c6157646f644430694d5441774969426d615778806102608701527f735053496a526b59774d4441774969382b50484a6c59335167654430694d7a556102808701527f7749694235505349304e544169494864705a48526f505349784d4441694947686102a08701527f6c6157646f644430694d5441774969426d615778735053496a4d4441774d455a806102c08801527f474969382b50484a6c59335167654430694d7a557749694235505349314e54416102e08801527f69494864705a48526f505349784d4441694947686c6157646f644430694d5441806103008901527f774969426d615778735053496a4d4441774d455a474969382b50484a6c593351806103208a01527f67654430694d7a557749694235505349324e544169494864705a48526f5053496103408a01527f784d4441694947686c6157646f644430694d5441774969426d61577873505349806103608b01527f6a4d444247526a41774969382b50484a6c59335167654430694e4455774969426103808b01527f35505349794e544169494864705a48526f505349784d4441694947686c6157646103a08b01527f6f644430694d5441774969426d615778735053496a526b59774d4441774969386103c08b01527f2b50484a6c59335167654430694e445577496942355053497a4e5441694948646103e08b0152876104008b01527f6d615778735053496a4d4441774d455a474969382b50484a6c593351676544306104208b01527f694e44557749694235505349314e544169494864705a48526f505349784d44416104408b01527f694947686c6157646f644430694d5441774969426d615778735053496a4d44416104608b01527f774d455a474969382b50484a6c59335167654430694e445577496942355053496104808b0152866104a08b0152856104c08b01527f6c59335167654430694e54557749694235505349794e544169494864705a48526104e08b0152846105008b01527f735053496a526b59774d4441774969382b50484a6c59335167654430694e54556105208b01527f77496942355053497a4e544169494864705a48526f505349784d4441694947686105408b0152836105608b01527f474969382b50484a6c59335167654430694e54557749694235505349304e54416105808b0152826105a08b0152816105c08b01527f67654430694e54557749694235505349314e544169494864705a48526f5053496105e08b0152806106008b0152505050507f6a4d4441774d455a474969382b50484a6c59335167654430694e5455774969426106208701527f35505349324e544169494864705a48526f505349784d4441694947686c615764610640870152846106608701527f2b50484a6c59335167654430694e6a557749694235505349794e544169494864610680870152836106a08701527f6d615778735053496a526b59774d4441774969382b50484a6c593351676544306106c08701527f694e6a5577496942355053497a4e544169494864705a48526f505349784d44416106e08701527f694947686c6157646f644430694d5441774969426d615778735053496a526b596107008701527f774d4441774969382b50484a6c59335167654430694e6a5577496942355053496107208701527f304e544169494864705a48526f505349784d4441694947686c6157646f6444306107408701527f694d5441774969426d615778735053496a526b59774d4441774969382b50484a6107608701527f6c59335167654430694e6a557749694235505349314e544169494864705a4852610780870152806107a087015250505050507f735053496a526b59774d4441774969382b5043397a646d632b227d00000000006107c08201526107db81019150509392505050565b634e487b7160e01b5f52601260045260245ffd5b5f82612e4e57612e4e612e2c565b500690565b5f82612e6157612e61612e2c565b500490565b6001600160a01b03858116825284166020820152604081018390526080606082018190525f90612e9890830184611f91565b9695505050505050565b5f60208284031215612eb2575f80fd5b81516107b181611f61565b60ff82811682821603908111156106b9576106b961238d565b5f610f65612ee483866123cc565b846123cc565b5f612ef582846123cc565b651e17b9bb339f60d11b81526006019392505050565b818103818111156106b9576106b961238d565b634e487b7160e01b5f52603160045260245ffd5b60ff8181168382160290811690818114612f4e57612f4e61238d565b5092915050565b60ff81811683821601908111156106b9576106b961238d565b5f612f7982876123cc565b681e3932b1ba103c1e9160b91b8152612f9560098201876123cc565b6411103c9e9160d91b81529050612faf60058201866123cc565b90507f222077696474683d223122206865696768743d2231222066696c6c3d220000008152612fe1601d8201856123cc565b631110179f60e11b8152600401979650505050505050565b808201808211156106b9576106b961238d56fe4142434445464748494a4b4c4d4e4f505152535455565758595a6162636465666768696a6b6c6d6e6f707172737475767778797a303132333435363738392b2f3c73766720786d6c6e733d22687474703a2f2f7777772e77332e6f72672f323030302f737667222076696577426f783d2230203020313520313522206865696768743d22353132222077696474683d22353132222073686170652d72656e646572696e673d2263726973704564676573223ea26469706673582212209ed55e64bf05cc6714d3d5d58250f88ff6ee8cf4e8000ef0b473d898116956a164736f6c63430008190033000000000000000000000000f3e2399c5d1c698a6c1dfa195adbd12a6afd1899000000000000000000000000000000000000000000000000000e35fa931a000000000000000000000000000000000000000000000000000000038d7ea4c68000000000000000000000000000cdf5228c53998d24176bea664c11dffe7b401d19c1b5e21037602577a7c1df76cca738965a6c40c5d1022309c27b43b3caa6db52",
        "nonce": "0x1a",
        "chainId": "0x14a34"
      },
      "additionalContracts": [],
      "isFixedGasLimit": false
    },
    {
      "hash": "0x9bb772f08bd1572a0a667dd5c16273ceed3ac273af20ca0ada42525371955625",
      "transactionType": "CALL",
      "contractName": "RGBSignatures",
      "contractAddress": "0x00000000e90a40c60b36a88c0e220572dc8be4e1",
      "function": "adminMint(uint8,uint8,uint8,address)",
      "arguments": [
        "0",
        "0",
        "0",
        "0xf3e2399c5D1C698A6C1dfa195ADbd12a6AfD1899"
      ],
      "transaction": {
        "from": "0xf3e2399c5d1c698a6c1dfa195adbd12a6afd1899",
        "to": "0x00000000e90a40c60b36a88c0e220572dc8be4e1",
        "gas": "0x25b1d",
        "value": "0x0",
        "input": "0xb31b0eac000000000000000000000000000000000000000000000000000000000000000000000000000000000000000000000000000000000000000000000000000000000000000000000000000000000000000000000000000000000000000000000000000000000000000000000000f3e2399c5d1c698a6c1dfa195adbd12a6afd1899",
        "nonce": "0x1b",
        "chainId": "0x14a34"
      },
      "additionalContracts": [],
      "isFixedGasLimit": false
    },
    {
      "hash": "0x35e0f0b4b5aaed3e559817653156ddd2bd1af3e1920b4a147ab766fd72bd14cc",
      "transactionType": "CALL",
      "contractName": "RGBSignatures",
      "contractAddress": "0x00000000e90a40c60b36a88c0e220572dc8be4e1",
      "function": "adminMint(uint8,uint8,uint8,address)",
      "arguments": [
        "255",
        "255",
        "255",
        "0xf3e2399c5D1C698A6C1dfa195ADbd12a6AfD1899"
      ],
      "transaction": {
        "from": "0xf3e2399c5d1c698a6c1dfa195adbd12a6afd1899",
        "to": "0x00000000e90a40c60b36a88c0e220572dc8be4e1",
        "gas": "0x32ec1",
        "value": "0x0",
        "input": "0xb31b0eac00000000000000000000000000000000000000000000000000000000000000ff00000000000000000000000000000000000000000000000000000000000000ff00000000000000000000000000000000000000000000000000000000000000ff000000000000000000000000f3e2399c5d1c698a6c1dfa195adbd12a6afd1899",
        "nonce": "0x1c",
        "chainId": "0x14a34"
      },
      "additionalContracts": [],
      "isFixedGasLimit": false
    },
    {
      "hash": "0x10d8ef60e47f05a8528cfb98b51fa5cef581b4e4977e3f0365d90d897dc82d0a",
      "transactionType": "CALL",
      "contractName": "RGBSignatures",
      "contractAddress": "0x00000000e90a40c60b36a88c0e220572dc8be4e1",
      "function": "adminMint(uint8,uint8,uint8,address)",
      "arguments": [
        "255",
        "0",
        "0",
        "0xf3e2399c5D1C698A6C1dfa195ADbd12a6AfD1899"
      ],
      "transaction": {
        "from": "0xf3e2399c5d1c698a6c1dfa195adbd12a6afd1899",
        "to": "0x00000000e90a40c60b36a88c0e220572dc8be4e1",
        "gas": "0x32ea0",
        "value": "0x0",
        "input": "0xb31b0eac00000000000000000000000000000000000000000000000000000000000000ff00000000000000000000000000000000000000000000000000000000000000000000000000000000000000000000000000000000000000000000000000000000000000000000000000000000f3e2399c5d1c698a6c1dfa195adbd12a6afd1899",
        "nonce": "0x1d",
        "chainId": "0x14a34"
      },
      "additionalContracts": [],
      "isFixedGasLimit": false
    },
    {
      "hash": "0x430f27ba2d9cf41d0eb1be999eedd6bdd655930bb43accbd4b4026ae127d8331",
      "transactionType": "CALL",
      "contractName": "RGBSignatures",
      "contractAddress": "0x00000000e90a40c60b36a88c0e220572dc8be4e1",
      "function": "adminMint(uint8,uint8,uint8,address)",
      "arguments": [
        "0",
        "255",
        "0",
        "0xf3e2399c5D1C698A6C1dfa195ADbd12a6AfD1899"
      ],
      "transaction": {
        "from": "0xf3e2399c5d1c698a6c1dfa195adbd12a6afd1899",
        "to": "0x00000000e90a40c60b36a88c0e220572dc8be4e1",
        "gas": "0x32ea0",
        "value": "0x0",
        "input": "0xb31b0eac000000000000000000000000000000000000000000000000000000000000000000000000000000000000000000000000000000000000000000000000000000ff0000000000000000000000000000000000000000000000000000000000000000000000000000000000000000f3e2399c5d1c698a6c1dfa195adbd12a6afd1899",
        "nonce": "0x1e",
        "chainId": "0x14a34"
      },
      "additionalContracts": [],
      "isFixedGasLimit": false
    },
    {
      "hash": "0xf32bd6f4fe51ef3866da4e5683b070690f09edbf46dea8df3148b2822ddd0f78",
      "transactionType": "CALL",
      "contractName": "RGBSignatures",
      "contractAddress": "0x00000000e90a40c60b36a88c0e220572dc8be4e1",
      "function": "adminMint(uint8,uint8,uint8,address)",
      "arguments": [
        "0",
        "0",
        "255",
        "0xf3e2399c5D1C698A6C1dfa195ADbd12a6AfD1899"
      ],
      "transaction": {
        "from": "0xf3e2399c5d1c698a6c1dfa195adbd12a6afd1899",
        "to": "0x00000000e90a40c60b36a88c0e220572dc8be4e1",
        "gas": "0x32ea0",
        "value": "0x0",
        "input": "0xb31b0eac0000000000000000000000000000000000000000000000000000000000000000000000000000000000000000000000000000000000000000000000000000000000000000000000000000000000000000000000000000000000000000000000ff000000000000000000000000f3e2399c5d1c698a6c1dfa195adbd12a6afd1899",
        "nonce": "0x1f",
        "chainId": "0x14a34"
      },
      "additionalContracts": [],
      "isFixedGasLimit": false
    },
    {
      "hash": "0x3ac0f90bf7c3fc120e614d74e7b3faef5fa02b2ea42431bafa56e07c2c4856e6",
      "transactionType": "CALL",
      "contractName": "RGBSignatures",
      "contractAddress": "0x00000000e90a40c60b36a88c0e220572dc8be4e1",
      "function": "adminMint(uint8,uint8,uint8,address)",
      "arguments": [
        "0",
        "255",
        "255",
        "0xf3e2399c5D1C698A6C1dfa195ADbd12a6AfD1899"
      ],
      "transaction": {
        "from": "0xf3e2399c5d1c698a6c1dfa195adbd12a6afd1899",
        "to": "0x00000000e90a40c60b36a88c0e220572dc8be4e1",
        "gas": "0x35e9d",
        "value": "0x0",
        "input": "0xb31b0eac000000000000000000000000000000000000000000000000000000000000000000000000000000000000000000000000000000000000000000000000000000ff00000000000000000000000000000000000000000000000000000000000000ff000000000000000000000000f3e2399c5d1c698a6c1dfa195adbd12a6afd1899",
        "nonce": "0x20",
        "chainId": "0x14a34"
      },
      "additionalContracts": [],
      "isFixedGasLimit": false
    },
    {
      "hash": "0x06f59c0765d5a5e15527ae659801193d15967bfb5067f28814f0781c1badbd8f",
      "transactionType": "CALL",
      "contractName": "RGBSignatures",
      "contractAddress": "0x00000000e90a40c60b36a88c0e220572dc8be4e1",
      "function": "adminMint(uint8,uint8,uint8,address)",
      "arguments": [
        "255",
        "0",
        "255",
        "0xf3e2399c5D1C698A6C1dfa195ADbd12a6AfD1899"
      ],
      "transaction": {
        "from": "0xf3e2399c5d1c698a6c1dfa195adbd12a6afd1899",
        "to": "0x00000000e90a40c60b36a88c0e220572dc8be4e1",
        "gas": "0x35e9d",
        "value": "0x0",
        "input": "0xb31b0eac00000000000000000000000000000000000000000000000000000000000000ff000000000000000000000000000000000000000000000000000000000000000000000000000000000000000000000000000000000000000000000000000000ff000000000000000000000000f3e2399c5d1c698a6c1dfa195adbd12a6afd1899",
        "nonce": "0x21",
        "chainId": "0x14a34"
      },
      "additionalContracts": [],
      "isFixedGasLimit": false
    },
    {
      "hash": "0x97c11235f97f7b25dac839a3ec25c9e94f78fdbbfcd05f43beab406d19215b69",
      "transactionType": "CALL",
      "contractName": "RGBSignatures",
      "contractAddress": "0x00000000e90a40c60b36a88c0e220572dc8be4e1",
      "function": "adminMint(uint8,uint8,uint8,address)",
      "arguments": [
        "255",
        "255",
        "0",
        "0xf3e2399c5D1C698A6C1dfa195ADbd12a6AfD1899"
      ],
      "transaction": {
        "from": "0xf3e2399c5d1c698a6c1dfa195adbd12a6afd1899",
        "to": "0x00000000e90a40c60b36a88c0e220572dc8be4e1",
        "gas": "0x35e9d",
        "value": "0x0",
        "input": "0xb31b0eac00000000000000000000000000000000000000000000000000000000000000ff00000000000000000000000000000000000000000000000000000000000000ff0000000000000000000000000000000000000000000000000000000000000000000000000000000000000000f3e2399c5d1c698a6c1dfa195adbd12a6afd1899",
        "nonce": "0x22",
        "chainId": "0x14a34"
      },
      "additionalContracts": [],
      "isFixedGasLimit": false
    },
    {
      "hash": "0xa3ff36e6ce79e2f1c7b70737a963c8967d20f73e708435e264aa7c76117314af",
      "transactionType": "CALL",
      "contractName": "RGBSignatures",
      "contractAddress": "0x00000000e90a40c60b36a88c0e220572dc8be4e1",
      "function": "adminMint(uint8,uint8,uint8,address)",
      "arguments": [
        "85",
        "85",
        "85",
        "0xD6507fC98605eAb8775f851c25A5E09Dc12ab7A7"
      ],
      "transaction": {
        "from": "0xf3e2399c5d1c698a6c1dfa195adbd12a6afd1899",
        "to": "0x00000000e90a40c60b36a88c0e220572dc8be4e1",
        "gas": "0x31fa5",
        "value": "0x0",
        "input": "0xb31b0eac000000000000000000000000000000000000000000000000000000000000005500000000000000000000000000000000000000000000000000000000000000550000000000000000000000000000000000000000000000000000000000000055000000000000000000000000d6507fc98605eab8775f851c25a5e09dc12ab7a7",
        "nonce": "0x23",
        "chainId": "0x14a34"
      },
      "additionalContracts": [],
      "isFixedGasLimit": false
    },
    {
      "hash": "0xdbc4a929fa7b70936ce511e3806ab91c62134f2d1ab7db6fdb4ed1a746a5a7bb",
      "transactionType": "CALL",
      "contractName": "RGBSignatures",
      "contractAddress": "0x00000000e90a40c60b36a88c0e220572dc8be4e1",
      "function": "transferOwnership(address)",
      "arguments": [
        "0x000000005d5Bd1cC7fF80ddCd46F245beC548EdF"
      ],
      "transaction": {
        "from": "0xf3e2399c5d1c698a6c1dfa195adbd12a6afd1899",
        "to": "0x00000000e90a40c60b36a88c0e220572dc8be4e1",
        "gas": "0xa3a1",
        "value": "0x0",
        "input": "0xf2fde38b000000000000000000000000000000005d5bd1cc7ff80ddcd46f245bec548edf",
        "nonce": "0x24",
        "chainId": "0x14a34"
      },
      "additionalContracts": [],
      "isFixedGasLimit": false
    }
  ],
  "receipts": [
    {
      "status": "0x1",
      "cumulativeGasUsed": "0x3860d4",
      "logs": [
        {
          "address": "0x00000000e90a40c60b36a88c0e220572dc8be4e1",
          "topics": [
            "0x8be0079c531659141344cd1fd0a4f28419497f9722a3daafe3b4186f6b6457e0",
            "0x0000000000000000000000000000000000000000000000000000000000000000",
            "0x000000000000000000000000f3e2399c5d1c698a6c1dfa195adbd12a6afd1899"
          ],
          "data": "0x",
          "blockHash": "0xd31fbab87a2ece7d8933ed1e5867eb1fafd96d6c50b7bd4c041c5c94dabcf3ca",
          "blockNumber": "0x1255094",
          "transactionHash": "0xe748674c9b2dd1fd174584a22a67047b7d4db13e8d768aa3ed5c8c01293816df",
          "transactionIndex": "0x6",
          "logIndex": "0x11",
          "removed": false
        }
      ],
      "logsBloom": "0x80000000000000000000000000000000000000000000000000800000000000000000000000000000000000000000000000000000000000000000000000000000000000000000000000010000000000000001000000000000000000000000000000000000020000000000000000000800000000000000000000000000000000400000000000000000000000000000000000000000000000000000000002000000000000000000000000000000000000000000000000000000000000000000000000000000000000000000000000000000000000000000400010000000000020000000000000000000000002000000000000000000000000000000000000000000",
      "type": "0x2",
      "transactionHash": "0xe748674c9b2dd1fd174584a22a67047b7d4db13e8d768aa3ed5c8c01293816df",
      "transactionIndex": "0x6",
      "blockHash": "0xd31fbab87a2ece7d8933ed1e5867eb1fafd96d6c50b7bd4c041c5c94dabcf3ca",
      "blockNumber": "0x1255094",
      "gasUsed": "0x2cddbf",
      "effectiveGasPrice": "0x18cf0",
      "from": "0xf3e2399c5d1c698a6c1dfa195adbd12a6afd1899",
      "to": "0x4e59b44847b379578588920ca78fbf26c0b4956c",
      "contractAddress": "0x00000000e90a40c60b36a88c0e220572dc8be4e1",
      "l1BaseFeeScalar": "0x44d",
      "l1BlobBaseFee": "0x1",
      "l1BlobBaseFeeScalar": "0xa118b",
      "l1Fee": "0x45c7309405",
      "l1GasPrice": "0x85d42248",
      "l1GasUsed": "0x1d991"
    },
    {
      "status": "0x1",
      "cumulativeGasUsed": "0x39fd37",
      "logs": [
        {
          "address": "0x00000000e90a40c60b36a88c0e220572dc8be4e1",
          "topics": [
            "0xddf252ad1be2c89b69c2b068fc378daa952ba7f163c4a11628f55a4df523b3ef",
            "0x0000000000000000000000000000000000000000000000000000000000000000",
            "0x000000000000000000000000f3e2399c5d1c698a6c1dfa195adbd12a6afd1899",
            "0x0000000000000000000000000000000000000000000000000000000000000000"
          ],
          "data": "0x",
          "blockHash": "0xd31fbab87a2ece7d8933ed1e5867eb1fafd96d6c50b7bd4c041c5c94dabcf3ca",
          "blockNumber": "0x1255094",
          "transactionHash": "0x9bb772f08bd1572a0a667dd5c16273ceed3ac273af20ca0ada42525371955625",
          "transactionIndex": "0x7",
          "logIndex": "0x12",
          "removed": false
        },
        {
          "address": "0x00000000e90a40c60b36a88c0e220572dc8be4e1",
          "topics": [
            "0x5a3e96f397e68b20a43c25f664b628805b877334dadfcc925c6c1a3ad4340458",
            "0x0000000000000000000000000000000000000000000000000000000000000000"
          ],
          "data": "0x000000000000000000000000f3e2399c5d1c698a6c1dfa195adbd12a6afd1899000000000000000000000000000000000000000000000000000000000000000100000000000000000000000000000000000000000000000000000000675e0008",
          "blockHash": "0xd31fbab87a2ece7d8933ed1e5867eb1fafd96d6c50b7bd4c041c5c94dabcf3ca",
          "blockNumber": "0x1255094",
          "transactionHash": "0x9bb772f08bd1572a0a667dd5c16273ceed3ac273af20ca0ada42525371955625",
          "transactionIndex": "0x7",
          "logIndex": "0x13",
          "removed": false
        }
      ],
      "logsBloom": "0x80000000000000000000000000000000000000000000000000000000000000000000000000000000000000000000000000000000000000000000000000000000000000000000000000010008000000000000000000800000000000000400000000000000020000000000000080000800000000000000000000000010000000000000000000000000000000000000000000000000000000000000000002000000000000000000000000000000000000000000000000000000000000000000000000000002000000000000000000000000000000000000400010000000000020000000000000000000000002000000000000000000000000000000000000000000",
      "type": "0x2",
      "transactionHash": "0x9bb772f08bd1572a0a667dd5c16273ceed3ac273af20ca0ada42525371955625",
      "transactionIndex": "0x7",
      "blockHash": "0xd31fbab87a2ece7d8933ed1e5867eb1fafd96d6c50b7bd4c041c5c94dabcf3ca",
      "blockNumber": "0x1255094",
      "gasUsed": "0x19c63",
      "effectiveGasPrice": "0x18cf0",
      "from": "0xf3e2399c5d1c698a6c1dfa195adbd12a6afd1899",
      "to": "0x00000000e90a40c60b36a88c0e220572dc8be4e1",
      "contractAddress": null,
      "l1BaseFeeScalar": "0x44d",
      "l1BlobBaseFee": "0x1",
      "l1BlobBaseFeeScalar": "0xa118b",
      "l1Fee": "0xebc0a724",
      "l1GasPrice": "0x85d42248",
      "l1GasUsed": "0x640"
    },
    {
      "status": "0x1",
      "cumulativeGasUsed": "0x3c4b16",
      "logs": [
        {
          "address": "0x00000000e90a40c60b36a88c0e220572dc8be4e1",
          "topics": [
            "0xddf252ad1be2c89b69c2b068fc378daa952ba7f163c4a11628f55a4df523b3ef",
            "0x0000000000000000000000000000000000000000000000000000000000000000",
            "0x000000000000000000000000f3e2399c5d1c698a6c1dfa195adbd12a6afd1899",
            "0x0000000000000000000000000000000000000000000000000000000000ffffff"
          ],
          "data": "0x",
          "blockHash": "0xd31fbab87a2ece7d8933ed1e5867eb1fafd96d6c50b7bd4c041c5c94dabcf3ca",
          "blockNumber": "0x1255094",
          "transactionHash": "0x35e0f0b4b5aaed3e559817653156ddd2bd1af3e1920b4a147ab766fd72bd14cc",
          "transactionIndex": "0x8",
          "logIndex": "0x14",
          "removed": false
        },
        {
          "address": "0x00000000e90a40c60b36a88c0e220572dc8be4e1",
          "topics": [
            "0x5a3e96f397e68b20a43c25f664b628805b877334dadfcc925c6c1a3ad4340458",
            "0x0000000000000000000000000000000000000000000000000000000000ffffff"
          ],
          "data": "0x000000000000000000000000f3e2399c5d1c698a6c1dfa195adbd12a6afd1899000000000000000000000000000000000000000000000000000000000000000200000000000000000000000000000000000000000000000000000000675e0008",
          "blockHash": "0xd31fbab87a2ece7d8933ed1e5867eb1fafd96d6c50b7bd4c041c5c94dabcf3ca",
          "blockNumber": "0x1255094",
          "transactionHash": "0x35e0f0b4b5aaed3e559817653156ddd2bd1af3e1920b4a147ab766fd72bd14cc",
          "transactionIndex": "0x8",
          "logIndex": "0x15",
          "removed": false
        }
      ],
      "logsBloom": "0x80000000000000000000000000000000000000000000000000000000000000000000000000000000000000000000000040000000000000000000000000000000000000000000000000010008000000000000000000800000000000000400000000000000020000000000000080000800000000000000000000000010000000000000000000100000000000000000000000000000000000000000000002000000000000000000000000000000000000000000000000000000000000000000000000000002000000000000000000000000000000000000400010000000000020000000000000000000000002000000000000000000000000000000000000800000",
      "type": "0x2",
      "transactionHash": "0x35e0f0b4b5aaed3e559817653156ddd2bd1af3e1920b4a147ab766fd72bd14cc",
      "transactionIndex": "0x8",
      "blockHash": "0xd31fbab87a2ece7d8933ed1e5867eb1fafd96d6c50b7bd4c041c5c94dabcf3ca",
      "blockNumber": "0x1255094",
      "gasUsed": "0x24ddf",
      "effectiveGasPrice": "0x18cf0",
      "from": "0xf3e2399c5d1c698a6c1dfa195adbd12a6afd1899",
      "to": "0x00000000e90a40c60b36a88c0e220572dc8be4e1",
      "contractAddress": null,
      "l1BaseFeeScalar": "0x44d",
      "l1BlobBaseFee": "0x1",
      "l1BlobBaseFeeScalar": "0xa118b",
      "l1Fee": "0xebc0a724",
      "l1GasPrice": "0x85d42248",
      "l1GasUsed": "0x640"
    },
    {
      "status": "0x1",
      "cumulativeGasUsed": "0x3e98dd",
      "logs": [
        {
          "address": "0x00000000e90a40c60b36a88c0e220572dc8be4e1",
          "topics": [
            "0xddf252ad1be2c89b69c2b068fc378daa952ba7f163c4a11628f55a4df523b3ef",
            "0x0000000000000000000000000000000000000000000000000000000000000000",
            "0x000000000000000000000000f3e2399c5d1c698a6c1dfa195adbd12a6afd1899",
            "0x0000000000000000000000000000000000000000000000000000000000ff0000"
          ],
          "data": "0x",
          "blockHash": "0xd31fbab87a2ece7d8933ed1e5867eb1fafd96d6c50b7bd4c041c5c94dabcf3ca",
          "blockNumber": "0x1255094",
          "transactionHash": "0x10d8ef60e47f05a8528cfb98b51fa5cef581b4e4977e3f0365d90d897dc82d0a",
          "transactionIndex": "0x9",
          "logIndex": "0x16",
          "removed": false
        },
        {
          "address": "0x00000000e90a40c60b36a88c0e220572dc8be4e1",
          "topics": [
            "0x5a3e96f397e68b20a43c25f664b628805b877334dadfcc925c6c1a3ad4340458",
            "0x0000000000000000000000000000000000000000000000000000000000ff0000"
          ],
          "data": "0x000000000000000000000000f3e2399c5d1c698a6c1dfa195adbd12a6afd1899000000000000000000000000000000000000000000000000000000000000000300000000000000000000000000000000000000000000000000000000675e0008",
          "blockHash": "0xd31fbab87a2ece7d8933ed1e5867eb1fafd96d6c50b7bd4c041c5c94dabcf3ca",
          "blockNumber": "0x1255094",
          "transactionHash": "0x10d8ef60e47f05a8528cfb98b51fa5cef581b4e4977e3f0365d90d897dc82d0a",
          "transactionIndex": "0x9",
          "logIndex": "0x17",
          "removed": false
        }
      ],
      "logsBloom": "0x80000000000000000000200000000000000000000000000000000000000000000000000000000000002000000000000000000000000000000000000000000000000000000000000000010008000000000000000000800000000000000400000000000000020000000000000080000800000000000000000000000010000000000000000000000000000000000000000000000000000000000000000002000000000000000000000000000000000000000000000000000000000000000000000000000002000000000000000000000000000000000000400010000000000020000000000000000000000002000000000000000000000000000000000000000020",
      "type": "0x2",
      "transactionHash": "0x10d8ef60e47f05a8528cfb98b51fa5cef581b4e4977e3f0365d90d897dc82d0a",
      "transactionIndex": "0x9",
      "blockHash": "0xd31fbab87a2ece7d8933ed1e5867eb1fafd96d6c50b7bd4c041c5c94dabcf3ca",
      "blockNumber": "0x1255094",
      "gasUsed": "0x24dc7",
      "effectiveGasPrice": "0x18cf0",
      "from": "0xf3e2399c5d1c698a6c1dfa195adbd12a6afd1899",
      "to": "0x00000000e90a40c60b36a88c0e220572dc8be4e1",
      "contractAddress": null,
      "l1BaseFeeScalar": "0x44d",
      "l1BlobBaseFee": "0x1",
      "l1BlobBaseFeeScalar": "0xa118b",
      "l1Fee": "0xebc0a724",
      "l1GasPrice": "0x85d42248",
      "l1GasUsed": "0x640"
    },
    {
      "status": "0x1",
      "cumulativeGasUsed": "0x40e6a4",
      "logs": [
        {
          "address": "0x00000000e90a40c60b36a88c0e220572dc8be4e1",
          "topics": [
            "0xddf252ad1be2c89b69c2b068fc378daa952ba7f163c4a11628f55a4df523b3ef",
            "0x0000000000000000000000000000000000000000000000000000000000000000",
            "0x000000000000000000000000f3e2399c5d1c698a6c1dfa195adbd12a6afd1899",
            "0x000000000000000000000000000000000000000000000000000000000000ff00"
          ],
          "data": "0x",
          "blockHash": "0xd31fbab87a2ece7d8933ed1e5867eb1fafd96d6c50b7bd4c041c5c94dabcf3ca",
          "blockNumber": "0x1255094",
          "transactionHash": "0x430f27ba2d9cf41d0eb1be999eedd6bdd655930bb43accbd4b4026ae127d8331",
          "transactionIndex": "0xa",
          "logIndex": "0x18",
          "removed": false
        },
        {
          "address": "0x00000000e90a40c60b36a88c0e220572dc8be4e1",
          "topics": [
            "0x5a3e96f397e68b20a43c25f664b628805b877334dadfcc925c6c1a3ad4340458",
            "0x000000000000000000000000000000000000000000000000000000000000ff00"
          ],
          "data": "0x000000000000000000000000f3e2399c5d1c698a6c1dfa195adbd12a6afd1899000000000000000000000000000000000000000000000000000000000000000400000000000000000000000000000000000000000000000000000000675e0008",
          "blockHash": "0xd31fbab87a2ece7d8933ed1e5867eb1fafd96d6c50b7bd4c041c5c94dabcf3ca",
          "blockNumber": "0x1255094",
          "transactionHash": "0x430f27ba2d9cf41d0eb1be999eedd6bdd655930bb43accbd4b4026ae127d8331",
          "transactionIndex": "0xa",
          "logIndex": "0x19",
          "removed": false
        }
      ],
      "logsBloom": "0x80000000000000000000000000000000000000000000000000000000000000000000000000000000000000000000000000000000000000000000000000000000000000000000000000010008000000000000000000800000000000000400000000000000020010000000000080000800000000000000000000000010000000000000000000000000000000000000000000000000000000000000000002000000000000000000000000000000000000000000000000000000000000100000000000000002000000000000000000000000000000000000400010000000000020000000000000000000000002000000000000000000000000000000000040000000",
      "type": "0x2",
      "transactionHash": "0x430f27ba2d9cf41d0eb1be999eedd6bdd655930bb43accbd4b4026ae127d8331",
      "transactionIndex": "0xa",
      "blockHash": "0xd31fbab87a2ece7d8933ed1e5867eb1fafd96d6c50b7bd4c041c5c94dabcf3ca",
      "blockNumber": "0x1255094",
      "gasUsed": "0x24dc7",
      "effectiveGasPrice": "0x18cf0",
      "from": "0xf3e2399c5d1c698a6c1dfa195adbd12a6afd1899",
      "to": "0x00000000e90a40c60b36a88c0e220572dc8be4e1",
      "contractAddress": null,
      "l1BaseFeeScalar": "0x44d",
      "l1BlobBaseFee": "0x1",
      "l1BlobBaseFeeScalar": "0xa118b",
      "l1Fee": "0xebc0a724",
      "l1GasPrice": "0x85d42248",
      "l1GasUsed": "0x640"
    },
    {
      "status": "0x1",
      "cumulativeGasUsed": "0x43346b",
      "logs": [
        {
          "address": "0x00000000e90a40c60b36a88c0e220572dc8be4e1",
          "topics": [
            "0xddf252ad1be2c89b69c2b068fc378daa952ba7f163c4a11628f55a4df523b3ef",
            "0x0000000000000000000000000000000000000000000000000000000000000000",
            "0x000000000000000000000000f3e2399c5d1c698a6c1dfa195adbd12a6afd1899",
            "0x00000000000000000000000000000000000000000000000000000000000000ff"
          ],
          "data": "0x",
          "blockHash": "0xd31fbab87a2ece7d8933ed1e5867eb1fafd96d6c50b7bd4c041c5c94dabcf3ca",
          "blockNumber": "0x1255094",
          "transactionHash": "0xf32bd6f4fe51ef3866da4e5683b070690f09edbf46dea8df3148b2822ddd0f78",
          "transactionIndex": "0xb",
          "logIndex": "0x1a",
          "removed": false
        },
        {
          "address": "0x00000000e90a40c60b36a88c0e220572dc8be4e1",
          "topics": [
            "0x5a3e96f397e68b20a43c25f664b628805b877334dadfcc925c6c1a3ad4340458",
            "0x00000000000000000000000000000000000000000000000000000000000000ff"
          ],
          "data": "0x000000000000000000000000f3e2399c5d1c698a6c1dfa195adbd12a6afd1899000000000000000000000000000000000000000000000000000000000000000500000000000000000000000000000000000000000000000000000000675e0008",
          "blockHash": "0xd31fbab87a2ece7d8933ed1e5867eb1fafd96d6c50b7bd4c041c5c94dabcf3ca",
          "blockNumber": "0x1255094",
          "transactionHash": "0xf32bd6f4fe51ef3866da4e5683b070690f09edbf46dea8df3148b2822ddd0f78",
          "transactionIndex": "0xb",
          "logIndex": "0x1b",
          "removed": false
        }
      ],
      "logsBloom": "0x80000000000000000000000000000000000000000000000000000000000000000000000000000000000000000000000000000000000000000000000000000000000000000000000000010008000000000000000000800000000000000400000010000000020000000000000080000800000000000000000000000010000000000000000000000000000000000000000000000000000000000000000002000000000000000000000000008000000000000000000000000000000000000000000000000002000000000000000000000000000000000000400010000000000020000000000000000000000002000000400000000000000000000000000000000000",
      "type": "0x2",
      "transactionHash": "0xf32bd6f4fe51ef3866da4e5683b070690f09edbf46dea8df3148b2822ddd0f78",
      "transactionIndex": "0xb",
      "blockHash": "0xd31fbab87a2ece7d8933ed1e5867eb1fafd96d6c50b7bd4c041c5c94dabcf3ca",
      "blockNumber": "0x1255094",
      "gasUsed": "0x24dc7",
      "effectiveGasPrice": "0x18cf0",
      "from": "0xf3e2399c5d1c698a6c1dfa195adbd12a6afd1899",
      "to": "0x00000000e90a40c60b36a88c0e220572dc8be4e1",
      "contractAddress": null,
      "l1BaseFeeScalar": "0x44d",
      "l1BlobBaseFee": "0x1",
      "l1BlobBaseFeeScalar": "0xa118b",
      "l1Fee": "0xebc0a724",
      "l1GasPrice": "0x85d42248",
      "l1GasUsed": "0x640"
    },
    {
      "status": "0x1",
      "cumulativeGasUsed": "0x45823e",
      "logs": [
        {
          "address": "0x00000000e90a40c60b36a88c0e220572dc8be4e1",
          "topics": [
            "0xddf252ad1be2c89b69c2b068fc378daa952ba7f163c4a11628f55a4df523b3ef",
            "0x0000000000000000000000000000000000000000000000000000000000000000",
            "0x000000000000000000000000f3e2399c5d1c698a6c1dfa195adbd12a6afd1899",
            "0x000000000000000000000000000000000000000000000000000000000000ffff"
          ],
          "data": "0x",
          "blockHash": "0xd31fbab87a2ece7d8933ed1e5867eb1fafd96d6c50b7bd4c041c5c94dabcf3ca",
          "blockNumber": "0x1255094",
          "transactionHash": "0x3ac0f90bf7c3fc120e614d74e7b3faef5fa02b2ea42431bafa56e07c2c4856e6",
          "transactionIndex": "0xc",
          "logIndex": "0x1c",
          "removed": false
        },
        {
          "address": "0x00000000e90a40c60b36a88c0e220572dc8be4e1",
          "topics": [
            "0x5a3e96f397e68b20a43c25f664b628805b877334dadfcc925c6c1a3ad4340458",
            "0x000000000000000000000000000000000000000000000000000000000000ffff"
          ],
          "data": "0x000000000000000000000000f3e2399c5d1c698a6c1dfa195adbd12a6afd1899000000000000000000000000000000000000000000000000000000000000000600000000000000000000000000000000000000000000000000000000675e0008",
          "blockHash": "0xd31fbab87a2ece7d8933ed1e5867eb1fafd96d6c50b7bd4c041c5c94dabcf3ca",
          "blockNumber": "0x1255094",
          "transactionHash": "0x3ac0f90bf7c3fc120e614d74e7b3faef5fa02b2ea42431bafa56e07c2c4856e6",
          "transactionIndex": "0xc",
          "logIndex": "0x1d",
          "removed": false
        }
      ],
      "logsBloom": "0x80000000000000000000000000000000000000000000000000008000000000000000000000000000000000000000000000000000000000000000000000000000000000000000000000010008000000000000000000800000000000000400000000000000020400000000000080000800000000000000000000002010000000000000000000000000000000000000000000000000000000000000000002000000000000000000000000000000000000000000000000000000000000000000000000000002000000000000000000000000000000000000400010000000000020000000000000000000000002000000000000000000000000000000000000000000",
      "type": "0x2",
      "transactionHash": "0x3ac0f90bf7c3fc120e614d74e7b3faef5fa02b2ea42431bafa56e07c2c4856e6",
      "transactionIndex": "0xc",
      "blockHash": "0xd31fbab87a2ece7d8933ed1e5867eb1fafd96d6c50b7bd4c041c5c94dabcf3ca",
      "blockNumber": "0x1255094",
      "gasUsed": "0x24dd3",
      "effectiveGasPrice": "0x18cf0",
      "from": "0xf3e2399c5d1c698a6c1dfa195adbd12a6afd1899",
      "to": "0x00000000e90a40c60b36a88c0e220572dc8be4e1",
      "contractAddress": null,
      "l1BaseFeeScalar": "0x44d",
      "l1BlobBaseFee": "0x1",
      "l1BlobBaseFeeScalar": "0xa118b",
      "l1Fee": "0xebc0a724",
      "l1GasPrice": "0x85d42248",
      "l1GasUsed": "0x640"
    },
    {
      "status": "0x1",
      "cumulativeGasUsed": "0x47d011",
      "logs": [
        {
          "address": "0x00000000e90a40c60b36a88c0e220572dc8be4e1",
          "topics": [
            "0xddf252ad1be2c89b69c2b068fc378daa952ba7f163c4a11628f55a4df523b3ef",
            "0x0000000000000000000000000000000000000000000000000000000000000000",
            "0x000000000000000000000000f3e2399c5d1c698a6c1dfa195adbd12a6afd1899",
            "0x0000000000000000000000000000000000000000000000000000000000ff00ff"
          ],
          "data": "0x",
          "blockHash": "0xd31fbab87a2ece7d8933ed1e5867eb1fafd96d6c50b7bd4c041c5c94dabcf3ca",
          "blockNumber": "0x1255094",
          "transactionHash": "0x06f59c0765d5a5e15527ae659801193d15967bfb5067f28814f0781c1badbd8f",
          "transactionIndex": "0xd",
          "logIndex": "0x1e",
          "removed": false
        },
        {
          "address": "0x00000000e90a40c60b36a88c0e220572dc8be4e1",
          "topics": [
            "0x5a3e96f397e68b20a43c25f664b628805b877334dadfcc925c6c1a3ad4340458",
            "0x0000000000000000000000000000000000000000000000000000000000ff00ff"
          ],
          "data": "0x000000000000000000000000f3e2399c5d1c698a6c1dfa195adbd12a6afd1899000000000000000000000000000000000000000000000000000000000000000700000000000000000000000000000000000000000000000000000000675e0008",
          "blockHash": "0xd31fbab87a2ece7d8933ed1e5867eb1fafd96d6c50b7bd4c041c5c94dabcf3ca",
          "blockNumber": "0x1255094",
          "transactionHash": "0x06f59c0765d5a5e15527ae659801193d15967bfb5067f28814f0781c1badbd8f",
          "transactionIndex": "0xd",
          "logIndex": "0x1f",
          "removed": false
        }
      ],
      "logsBloom": "0x80000000000000000000000000000000000000000000000000000000000000000000000000000000000000000000000000000000000000000000000000000000000000000000000000010008000000000000000000800000000000000400000000000000020000000000008080000800000000000000000000000010000000000000000000000000000000000000000000000000000000000000000002000000000000000000000000000000000000000000000000000000000000000000000000000002000000000000000000000000000000000000400010000000000020000000000000000000080002000000000000000000000000000000000020000000",
      "type": "0x2",
      "transactionHash": "0x06f59c0765d5a5e15527ae659801193d15967bfb5067f28814f0781c1badbd8f",
      "transactionIndex": "0xd",
      "blockHash": "0xd31fbab87a2ece7d8933ed1e5867eb1fafd96d6c50b7bd4c041c5c94dabcf3ca",
      "blockNumber": "0x1255094",
      "gasUsed": "0x24dd3",
      "effectiveGasPrice": "0x18cf0",
      "from": "0xf3e2399c5d1c698a6c1dfa195adbd12a6afd1899",
      "to": "0x00000000e90a40c60b36a88c0e220572dc8be4e1",
      "contractAddress": null,
      "l1BaseFeeScalar": "0x44d",
      "l1BlobBaseFee": "0x1",
      "l1BlobBaseFeeScalar": "0xa118b",
      "l1Fee": "0xebc0a724",
      "l1GasPrice": "0x85d42248",
      "l1GasUsed": "0x640"
    },
    {
      "status": "0x1",
      "cumulativeGasUsed": "0x4a1de4",
      "logs": [
        {
          "address": "0x00000000e90a40c60b36a88c0e220572dc8be4e1",
          "topics": [
            "0xddf252ad1be2c89b69c2b068fc378daa952ba7f163c4a11628f55a4df523b3ef",
            "0x0000000000000000000000000000000000000000000000000000000000000000",
            "0x000000000000000000000000f3e2399c5d1c698a6c1dfa195adbd12a6afd1899",
            "0x0000000000000000000000000000000000000000000000000000000000ffff00"
          ],
          "data": "0x",
          "blockHash": "0xd31fbab87a2ece7d8933ed1e5867eb1fafd96d6c50b7bd4c041c5c94dabcf3ca",
          "blockNumber": "0x1255094",
          "transactionHash": "0x97c11235f97f7b25dac839a3ec25c9e94f78fdbbfcd05f43beab406d19215b69",
          "transactionIndex": "0xe",
          "logIndex": "0x20",
          "removed": false
        },
        {
          "address": "0x00000000e90a40c60b36a88c0e220572dc8be4e1",
          "topics": [
            "0x5a3e96f397e68b20a43c25f664b628805b877334dadfcc925c6c1a3ad4340458",
            "0x0000000000000000000000000000000000000000000000000000000000ffff00"
          ],
          "data": "0x000000000000000000000000f3e2399c5d1c698a6c1dfa195adbd12a6afd1899000000000000000000000000000000000000000000000000000000000000000800000000000000000000000000000000000000000000000000000000675e0008",
          "blockHash": "0xd31fbab87a2ece7d8933ed1e5867eb1fafd96d6c50b7bd4c041c5c94dabcf3ca",
          "blockNumber": "0x1255094",
          "transactionHash": "0x97c11235f97f7b25dac839a3ec25c9e94f78fdbbfcd05f43beab406d19215b69",
          "transactionIndex": "0xe",
          "logIndex": "0x21",
          "removed": false
        }
      ],
      "logsBloom": "0x80000000000000000000000000000002000000000000000000000000000000000000000000000000000000400000000000000000000000000000000000000000000000000000000400010008000000000000000000800000000000000400000000000000020000000000000080000800000000000000000000000010000000000000000000000000000000000000000000000000000000000000000002000000000000000000000000000000000000000000000000000000000000000000000000000002000000000000000000000000000000000000400010000000000020000000000000000000000002000000000000000000000000000000000000000000",
      "type": "0x2",
      "transactionHash": "0x97c11235f97f7b25dac839a3ec25c9e94f78fdbbfcd05f43beab406d19215b69",
      "transactionIndex": "0xe",
      "blockHash": "0xd31fbab87a2ece7d8933ed1e5867eb1fafd96d6c50b7bd4c041c5c94dabcf3ca",
      "blockNumber": "0x1255094",
      "gasUsed": "0x24dd3",
      "effectiveGasPrice": "0x18cf0",
      "from": "0xf3e2399c5d1c698a6c1dfa195adbd12a6afd1899",
      "to": "0x00000000e90a40c60b36a88c0e220572dc8be4e1",
      "contractAddress": null,
      "l1BaseFeeScalar": "0x44d",
      "l1BlobBaseFee": "0x1",
      "l1BlobBaseFeeScalar": "0xa118b",
      "l1Fee": "0xebc0a724",
      "l1GasPrice": "0x85d42248",
      "l1GasUsed": "0x640"
    },
    {
      "status": "0x1",
      "cumulativeGasUsed": "0x4c60d3",
      "logs": [
        {
          "address": "0x00000000e90a40c60b36a88c0e220572dc8be4e1",
          "topics": [
            "0xddf252ad1be2c89b69c2b068fc378daa952ba7f163c4a11628f55a4df523b3ef",
            "0x0000000000000000000000000000000000000000000000000000000000000000",
            "0x000000000000000000000000d6507fc98605eab8775f851c25a5e09dc12ab7a7",
            "0x0000000000000000000000000000000000000000000000000000000000555555"
          ],
          "data": "0x",
          "blockHash": "0xd31fbab87a2ece7d8933ed1e5867eb1fafd96d6c50b7bd4c041c5c94dabcf3ca",
          "blockNumber": "0x1255094",
          "transactionHash": "0xa3ff36e6ce79e2f1c7b70737a963c8967d20f73e708435e264aa7c76117314af",
          "transactionIndex": "0xf",
          "logIndex": "0x22",
          "removed": false
        },
        {
          "address": "0x00000000e90a40c60b36a88c0e220572dc8be4e1",
          "topics": [
            "0x5a3e96f397e68b20a43c25f664b628805b877334dadfcc925c6c1a3ad4340458",
            "0x0000000000000000000000000000000000000000000000000000000000555555"
          ],
          "data": "0x000000000000000000000000f3e2399c5d1c698a6c1dfa195adbd12a6afd1899000000000000000000000000000000000000000000000000000000000000000900000000000000000000000000000000000000000000000000000000675e0008",
          "blockHash": "0xd31fbab87a2ece7d8933ed1e5867eb1fafd96d6c50b7bd4c041c5c94dabcf3ca",
          "blockNumber": "0x1255094",
          "transactionHash": "0xa3ff36e6ce79e2f1c7b70737a963c8967d20f73e708435e264aa7c76117314af",
          "transactionIndex": "0xf",
          "logIndex": "0x23",
          "removed": false
        }
      ],
      "logsBloom": "0x80000000000000000000000000000000000000000000000000000000000000000000000000000000000000000000000000000000000000040000000000000000000000000000000000010008000000000000000000800000000000000400000000000000020000002000000080000800000000000000000000000030000000000000000000000000000000000000004000000000000000000100000000000000000000000000000000000000000000000400000000000000000000000000000000000002000000000000000000000000000000000000000000000000000020000000000000000000000002000000000000000000000000000000000000000000",
      "type": "0x2",
      "transactionHash": "0xa3ff36e6ce79e2f1c7b70737a963c8967d20f73e708435e264aa7c76117314af",
      "transactionIndex": "0xf",
      "blockHash": "0xd31fbab87a2ece7d8933ed1e5867eb1fafd96d6c50b7bd4c041c5c94dabcf3ca",
      "blockNumber": "0x1255094",
      "gasUsed": "0x242ef",
      "effectiveGasPrice": "0x18cf0",
      "from": "0xf3e2399c5d1c698a6c1dfa195adbd12a6afd1899",
      "to": "0x00000000e90a40c60b36a88c0e220572dc8be4e1",
      "contractAddress": null,
      "l1BaseFeeScalar": "0x44d",
      "l1BlobBaseFee": "0x1",
      "l1BlobBaseFeeScalar": "0xa118b",
      "l1Fee": "0xebc0a724",
      "l1GasPrice": "0x85d42248",
      "l1GasUsed": "0x640"
    },
    {
      "status": "0x1",
      "cumulativeGasUsed": "0x4cd0b6",
      "logs": [
        {
          "address": "0x00000000e90a40c60b36a88c0e220572dc8be4e1",
          "topics": [
            "0x8be0079c531659141344cd1fd0a4f28419497f9722a3daafe3b4186f6b6457e0",
            "0x000000000000000000000000f3e2399c5d1c698a6c1dfa195adbd12a6afd1899",
            "0x000000000000000000000000000000005d5bd1cc7ff80ddcd46f245bec548edf"
          ],
          "data": "0x",
          "blockHash": "0xd31fbab87a2ece7d8933ed1e5867eb1fafd96d6c50b7bd4c041c5c94dabcf3ca",
          "blockNumber": "0x1255094",
          "transactionHash": "0xdbc4a929fa7b70936ce511e3806ab91c62134f2d1ab7db6fdb4ed1a746a5a7bb",
          "transactionIndex": "0x10",
          "logIndex": "0x24",
          "removed": false
        }
      ],
      "logsBloom": "0x80000000000000000000000000000000000000000000000000800000000000000000000000000000000000000000000000000000000000000000000000000000000000000000000000010000000000000001000000000000000000000000000000400000000000000000000000000000000000000000000000000000000000400000000000000000000000000000000000000000000002200000000002000000000000000000000000000000000000000000000000000000000000000000000000000000000000000000000000000000000000000000400010000000000000000000000000000000000002000000000000000000000000000000000000000000",
      "type": "0x2",
      "transactionHash": "0xdbc4a929fa7b70936ce511e3806ab91c62134f2d1ab7db6fdb4ed1a746a5a7bb",
      "transactionIndex": "0x10",
      "blockHash": "0xd31fbab87a2ece7d8933ed1e5867eb1fafd96d6c50b7bd4c041c5c94dabcf3ca",
      "blockNumber": "0x1255094",
      "gasUsed": "0x6fe3",
      "effectiveGasPrice": "0x18cf0",
      "from": "0xf3e2399c5d1c698a6c1dfa195adbd12a6afd1899",
      "to": "0x00000000e90a40c60b36a88c0e220572dc8be4e1",
      "contractAddress": null,
      "l1BaseFeeScalar": "0x44d",
      "l1BlobBaseFee": "0x1",
      "l1BlobBaseFeeScalar": "0xa118b",
      "l1Fee": "0xebc0a724",
      "l1GasPrice": "0x85d42248",
      "l1GasUsed": "0x640"
    }
  ],
  "libraries": [],
  "pending": [],
  "returns": {},
  "timestamp": 1734213657,
  "chain": 84532,
  "commit": "2ca4d0d"
}