{
  "transactions": [
    {
      "hash": "0x8476c7f8e264ab88fa85ac47bf11722769b85bf0cd4ddad236299fe4731e29f4",
      "transactionType": "CREATE2",
      "contractName": "RGBSignatures",
      "contractAddress": "0x000000009cbe1fb4f7d7e945311234a436bd80e2",
      "function": null,
      "arguments": [
        "0xf3e2399c5D1C698A6C1dfa195ADbd12a6AfD1899",
        "4000000000000000",
        "1000000000000000",
        "0xcdf5228c53998d24176Bea664c11dFFE7b401d19",
        "0xc1b5e21037602577a7c1df76cca738965a6c40c5d1022309c27b43b3caa6db52"
      ],
      "transaction": {
        "from": "0xf3e2399c5d1c698a6c1dfa195adbd12a6afd1899",
        "to": "0x4e59b44847b379578588920ca78fbf26c0b4956c",
        "gas": "0x4ccd7a",
        "value": "0x0",
        "input": "0xf3e2399c5d1c698a6c1dfa195adbd12a6afd18996b3a72a38ebd428c8537115d608060405234801561000f575f80fd5b506040516140a53803806140a583398101604081905261002e9161014a565b6040805180820182526003808252622923a160e91b602080840182905284518086019095529184529083015286915f6100678382610236565b5060016100748282610236565b5050506001600160a01b0381166100a457604051631e4fbdf760e01b81525f600482015260240160405180910390fd5b6100ad816100e2565b50600b93909355600c91909155600d80546001600160a01b0319166001600160a01b03909216919091179055600e55506102f5565b600a80546001600160a01b038381166001600160a01b0319831681179093556040519116919082907f8be0079c531659141344cd1fd0a4f28419497f9722a3daafe3b4186f6b6457e0905f90a35050565b6001600160a01b0381168114610147575f80fd5b50565b5f805f805f60a0868803121561015e575f80fd5b855161016981610133565b809550506020860151935060408601519250606086015161018981610133565b80925050608086015190509295509295909350565b634e487b7160e01b5f52604160045260245ffd5b600181811c908216806101c657607f821691505b6020821081036101e457634e487b7160e01b5f52602260045260245ffd5b50919050565b601f82111561023157805f5260205f20601f840160051c8101602085101561020f5750805b601f840160051c820191505b8181101561022e575f815560010161021b565b50505b505050565b81516001600160401b0381111561024f5761024f61019e565b6102638161025d84546101b2565b846101ea565b602080601f831160018114610296575f841561027f5750858301515b5f19600386901b1c1916600185901b1785556102ed565b5f85815260208120601f198616915b828110156102c4578886015182559484019460019091019084016102a5565b50858210156102e157878501515f19600388901b60f8161c191681555b505060018460011b0185555b505050505050565b613da3806103025f395ff3fe6080604052600436106101fc575f3560e01c8063537924ef11610113578063b31b0eac1161009d578063e6f12af91161006d578063e6f12af9146105fd578063e74b981b14610610578063e8a3d4851461062f578063e985e9c514610643578063f2fde38b14610662575f80fd5b8063b31b0eac1461058b578063b88d4fde146105aa578063bdb4b848146105c9578063c87b56dd146105de575f80fd5b80637284e416116100e35780637284e416146104d45780637cb647591461051c5780638da5cb5b1461053b57806395d89b4114610558578063a22cb4651461056c575f80fd5b8063537924ef146104635780636352211e1461048257806370a08231146104a1578063715018a6146104c0575f80fd5b806323b872dd1161019457806330b42ec21161016457806330b42ec21461039557806342842e0e146103c357806346904840146103e25780634f6ccce71461040157806352fa270d14610420575f80fd5b806323b872dd146103225780632db5b8e7146103415780632eb4a7ab146103615780632f745c5914610376575f80fd5b8063095ea7b3116101cf578063095ea7b3146102af5780630c7453ff146102d05780631498cfae146102ef57806318160ddd1461030e575f80fd5b806301ffc9a7146102005780630459bcac1461023457806306fdde0314610257578063081812fc14610278575b5f80fd5b34801561020b575f80fd5b5061021f61021a366004611fb4565b610681565b60405190151581526020015b60405180910390f35b34801561023f575f80fd5b50610249600c5481565b60405190815260200161022b565b348015610262575f80fd5b5061026b6106ab565b60405161022b9190611ffd565b348015610283575f80fd5b5061029761029236600461200f565b61073a565b6040516001600160a01b03909116815260200161022b565b3480156102ba575f80fd5b506102ce6102c936600461203a565b610761565b005b3480156102db575f80fd5b506102ce6102ea366004612064565b610770565b3480156102fa575f80fd5b50610249610309366004612094565b610783565b348015610319575f80fd5b50600854610249565b34801561032d575f80fd5b506102ce61033c3660046120d4565b6107b1565b61035461034f366004612112565b61083f565b60405161022b919061212b565b34801561036c575f80fd5b50610249600e5481565b348015610381575f80fd5b5061024961039036600461203a565b61093c565b3480156103a0575f80fd5b5061021f6103af366004612162565b600f6020525f908152604090205460ff1681565b3480156103ce575f80fd5b506102ce6103dd3660046120d4565b61099f565b3480156103ed575f80fd5b50600d54610297906001600160a01b031681565b34801561040c575f80fd5b5061024961041b36600461200f565b6109be565b34801561042b575f80fd5b5061043f61043a36600461200f565b610a13565b6040805160ff9485168152928416602084015292169181019190915260600161022b565b34801561046e575f80fd5b5061024961047d36600461217d565b610a55565b34801561048d575f80fd5b5061029761049c36600461200f565b610b38565b3480156104ac575f80fd5b506102496104bb366004612162565b610b42565b3480156104cb575f80fd5b506102ce610b87565b3480156104df575f80fd5b5061026b6040518060400160405280601d81526020017f31362c3737372c323136206f6e636861696e207267622076616c75657300000081525081565b348015610527575f80fd5b506102ce61053636600461200f565b610b9a565b348015610546575f80fd5b50600a546001600160a01b0316610297565b348015610563575f80fd5b5061026b610ba7565b348015610577575f80fd5b506102ce6105863660046121ec565b610bb6565b348015610596575f80fd5b506102496105a5366004612227565b610bc1565b3480156105b5575f80fd5b506102ce6105c436600461228e565b610be0565b3480156105d4575f80fd5b50610249600b5481565b3480156105e9575f80fd5b5061026b6105f836600461200f565b610bf8565b61024961060b366004612094565b610cd5565b34801561061b575f80fd5b506102ce61062a366004612162565b610d1c565b34801561063a575f80fd5b5061026b610d46565b34801561064e575f80fd5b5061021f61065d366004612367565b610dab565b34801561066d575f80fd5b506102ce61067c366004612162565b610dd8565b5f6001600160e01b0319821663780e9d6360e01b14806106a557506106a582610e15565b92915050565b60605f80546106b990612393565b80601f01602080910402602001604051908101604052809291908181526020018280546106e590612393565b80156107305780601f1061070757610100808354040283529160200191610730565b820191905f5260205f20905b81548152906001019060200180831161071357829003601f168201915b5050505050905090565b5f61074482610e64565b505f828152600460205260409020546001600160a01b03166106a5565b61076c828233610e9c565b5050565b610778610ea9565b600b91909155600c55565b5f6107a762ff0000601086901b1661ff00600886901b161760ff84161760016123df565b90505b9392505050565b6001600160a01b0382166107df57604051633250574960e11b81525f60048201526024015b60405180910390fd5b5f6107eb838333610ed6565b9050836001600160a01b0316816001600160a01b031614610839576040516364283d7b60e01b81526001600160a01b03808616600483015260248201849052821660448201526064016107d6565b50505050565b60608160ff16600c5461085291906123f2565b34101561088c578160ff16600c5461086a91906123f2565b60405162fae2d560e21b815260048101919091523460248201526044016107d6565b8160ff1667ffffffffffffffff8111156108a8576108a861227a565b6040519080825280602002602001820160405280156108d1578160200160208202803683370190505b5090505f5b8260ff168160ff16101561092e575f805f6108f084610fa1565b925092509250610903838383333361104e565b858560ff168151811061091857610918612409565b60209081029190910101525050506001016108d6565b506109376110c4565b919050565b5f61094683610b42565b82106109775760405163295f44f760e21b81526001600160a01b0384166004820152602481018390526044016107d6565b506001600160a01b03919091165f908152600660209081526040808320938352929052205490565b6109b983838360405180602001604052805f815250610be0565b505050565b5f6109c860085490565b82106109f05760405163295f44f760e21b81525f6004820152602481018390526044016107d6565b60088281548110610a0357610a03612409565b905f5260205f2001549050919050565b5f80806010610a2360018661241d565b60ff911c1692506008610a3760018661241d565b60ff911c169150610a4960018561241d565b60ff1690509193909250565b604080513360208201525f9182910160408051601f1981840301815282825280516020918201209083015201604051602081830303815290604052805190602001209050610aa78484600e5484611135565b610ac4576040516378a7f5cf60e11b815260040160405180910390fd5b335f908152600f602052604090205460ff1615610af65760405163d6c772ff60e01b81523360048201526024016107d6565b335f908152600f60205260408120805460ff191660011790558080610b1a81610fa1565b925092509250610b2d838383333361104e565b979650505050505050565b5f6106a582610e64565b5f6001600160a01b038216610b6c576040516322718ad960e21b81525f60048201526024016107d6565b506001600160a01b03165f9081526003602052604090205490565b610b8f610ea9565b610b985f61114c565b565b610ba2610ea9565b600e55565b6060600180546106b990612393565b61076c33838361119d565b5f610bca610ea9565b610bd7858585338661104e565b95945050505050565b610beb8484846107b1565b610839338585858561123b565b6060610c0382610e64565b505f805f610c1085610a13565b925092509250610c228360ff16611363565b610c2e8360ff16611363565b610c3a8360ff16611363565b6040518060400160405280601d81526020017f31362c3737372c323136206f6e636861696e207267622076616c756573000000815250610c81610c7c8a6113f3565b61174a565b610c8d8860ff16611363565b610c998860ff16611363565b610ca58860ff16611363565b604051602001610cbc989796959493929190612447565b6040516020818303038152906040529350505050919050565b5f600b54341015610d0557600b5460405162fae2d560e21b815260048101919091523460248201526044016107d6565b610d12848484333361104e565b90506107aa6110c4565b610d24610ea9565b600d80546001600160a01b0319166001600160a01b0392909216919091179055565b6060610d506106ab565b6040518060400160405280601d81526020017f31362c3737372c323136206f6e636861696e207267622076616c756573000000815250604051602001610d979291906125dd565b604051602081830303815290604052905090565b6001600160a01b039182165f90815260056020908152604080832093909416825291909152205460ff1690565b610de0610ea9565b6001600160a01b038116610e0957604051631e4fbdf760e01b81525f60048201526024016107d6565b610e128161114c565b50565b5f6001600160e01b031982166380ac58cd60e01b1480610e4557506001600160e01b03198216635b5e139f60e01b145b806106a557506301ffc9a760e01b6001600160e01b03198316146106a5565b5f818152600260205260408120546001600160a01b0316806106a557604051637e27328960e01b8152600481018490526024016107d6565b6109b98383836001611770565b600a546001600160a01b03163314610b985760405163118cdaa760e01b81523360048201526024016107d6565b5f80610ee3858585611874565b90506001600160a01b038116610f3f57610f3a84600880545f838152600960205260408120829055600182018355919091527ff3f7a9fe364faab93b216da50a3214154f22a0a2b415b23a84c8169e8b636ee30155565b610f62565b846001600160a01b0316816001600160a01b031614610f6257610f628185611966565b6001600160a01b038516610f7e57610f79846119e3565b6107a7565b846001600160a01b0316816001600160a01b0316146107a7576107a78585611a8a565b5f805f80443386604051602001610fea9392919092835260609190911b6bffffffffffffffffffffffff1916602083015260f81b6001600160f81b031916603482015260350190565b60408051601f198184030181529190528051602090910120905061101061010082613b15565b935061010061101f8183613b28565b6110299190613b15565b925061010061103b6201000083613b28565b6110459190613b15565b93959294505050565b5f61105a868686610783565b90506110668282611ad8565b807f5a3e96f397e68b20a43c25f664b628805b877334dadfcc925c6c1a3ad43404588461109260085490565b604080516001600160a01b0390931683526020830191909152429082015260600160405180910390a295945050505050565b600d546040515f916001600160a01b03169047908381818185875af1925050503d805f811461110e576040519150601f19603f3d011682016040523d82523d5f602084013e611113565b606091505b5050905080610e1257604051634033e4e360e01b815260040160405180910390fd5b5f82611142868685611b39565b1495945050505050565b600a80546001600160a01b038381166001600160a01b0319831681179093556040519116919082907f8be0079c531659141344cd1fd0a4f28419497f9722a3daafe3b4186f6b6457e0905f90a35050565b6001600160a01b0382166111cf57604051630b61174360e31b81526001600160a01b03831660048201526024016107d6565b6001600160a01b038381165f81815260056020908152604080832094871680845294825291829020805460ff191686151590811790915591519182527f17307eab39ab6107e8899845ad3d59bd9653f200f220920489ca2b5937696c31910160405180910390a3505050565b6001600160a01b0383163b1561135c57604051630a85bd0160e11b81526001600160a01b0384169063150b7a029061127d908890889087908790600401613b3b565b6020604051808303815f875af19250505080156112b7575060408051601f3d908101601f191682019092526112b491810190613b77565b60015b61131e573d8080156112e4576040519150601f19603f3d011682016040523d82523d5f602084013e6112e9565b606091505b5080515f0361131657604051633250574960e11b81526001600160a01b03851660048201526024016107d6565b805181602001fd5b6001600160e01b03198116630a85bd0160e11b1461135a57604051633250574960e11b81526001600160a01b03851660048201526024016107d6565b505b5050505050565b60605f61136f83611b7a565b60010190505f8167ffffffffffffffff81111561138e5761138e61227a565b6040519080825280601f01601f1916602001820160405280156113b8576020820181803683370190505b5090508181016020015b5f19016f181899199a1a9b1b9c1cb0b131b232b360811b600a86061a8153600a85049450846113c257509392505050565b60606113fd611f80565b5f5b60188160ff16101561145e5761141660018561241d565b600116600114611426575f611429565b60015b82611435836017613b92565b60ff166018811061144857611448612409565b91151560209092020152600193841c93016113ff565b5060408051610140810182525f60a0808301828152600160c0850152600260e085015260036101008501526004610120850152835283518082018552600f81526010602082810191909152601182870152601260608084019190915260056080808501919091528287019390935286518085018852600e81526017818401526018818901526013818301526006818501528688015286518085018852600d81526016818401526015818901526014818301526007818501528187015286518085018852600c8152600b81840152600a818901526009918101919091526008818401529185019190915284519182019094526072808252929391929091613cfc9083013990505f5b60058160ff161015611738575f5b60058160ff16101561172f575f848360ff166005811061159557611595612409565b60200201518260ff16600581106115ae576115ae612409565b602002015190506060808260ff166018036116085760405180604001604052806005815260200164626c61636b60d81b815250915060405180604001604052806005815260200164776869746560d81b81525090506116f0565b878360ff166018811061161d5761161d612409565b60200201516116495760405180604001604052806005815260200164626c61636b60d81b815250611668565b60405180604001604052806005815260200164776869746560d81b8152505b91508360ff168560ff1614801561168357508460ff16600314155b61168d57816116ed565b878360ff16601881106116a2576116a2612409565b60200201516116ce5760405180604001604052806005815260200164776869746560d81b8152506116ed565b60405180604001604052806005815260200164626c61636b60d81b8152505b90505b856116fd86868585611c51565b60405160200161170e929190613bab565b60405160208183030381529060405295505050508080600101915050611573565b50600101611565565b5080604051602001610cbc9190613bbf565b60606106a582604051806060016040528060408152602001613cbc604091396001611d17565b808061178457506001600160a01b03821615155b15611845575f61179384610e64565b90506001600160a01b038316158015906117bf5750826001600160a01b0316816001600160a01b031614155b80156117d257506117d08184610dab565b155b156117fb5760405163a9fbf51f60e01b81526001600160a01b03841660048201526024016107d6565b81156118435783856001600160a01b0316826001600160a01b03167f8c5be1e5ebec7d5bd14f71427d1e84f3dd0314c0f7b2291e5b200ac8c7c3b92560405160405180910390a45b505b50505f90815260046020526040902080546001600160a01b0319166001600160a01b0392909216919091179055565b5f828152600260205260408120546001600160a01b03908116908316156118a0576118a0818486611e92565b6001600160a01b038116156118da576118bb5f855f80611770565b6001600160a01b0381165f90815260036020526040902080545f190190555b6001600160a01b03851615611908576001600160a01b0385165f908152600360205260409020805460010190555b5f8481526002602052604080822080546001600160a01b0319166001600160a01b0389811691821790925591518793918516917fddf252ad1be2c89b69c2b068fc378daa952ba7f163c4a11628f55a4df523b3ef91a4949350505050565b5f61197083610b42565b5f838152600760209081526040808320546001600160a01b03881684526006909252909120919250908183146119c5575f83815260208281526040808320548584528184208190558352600790915290208290555b5f938452600760209081526040808620869055938552525081205550565b6008545f906119f49060019061241d565b5f8381526009602052604081205460088054939450909284908110611a1b57611a1b612409565b905f5260205f20015490508060088381548110611a3a57611a3a612409565b5f918252602080832090910192909255828152600990915260408082208490558582528120556008805480611a7157611a71613be0565b600190038181905f5260205f20015f9055905550505050565b5f6001611a9684610b42565b611aa0919061241d565b6001600160a01b039093165f908152600660209081526040808320868452825280832085905593825260079052919091209190915550565b6001600160a01b038216611b0157604051633250574960e11b81525f60048201526024016107d6565b5f611b0d83835f610ed6565b90506001600160a01b038116156109b9576040516339e3563760e11b81525f60048201526024016107d6565b5f81815b84811015611b7157611b6782878784818110611b5b57611b5b612409565b90506020020135611ef6565b9150600101611b3d565b50949350505050565b5f8072184f03e93ff9f4daa797ed6e38ed64bf6a1f0160401b8310611bb85772184f03e93ff9f4daa797ed6e38ed64bf6a1f0160401b830492506040015b6d04ee2d6d415b85acef81000000008310611be4576d04ee2d6d415b85acef8100000000830492506020015b662386f26fc100008310611c0257662386f26fc10000830492506010015b6305f5e1008310611c1a576305f5e100830492506008015b6127108310611c2e57612710830492506004015b60648310611c40576064830492506002015b600a83106106a55760010192915050565b60408051602081019091525f808252606091905b60038160ff161015611d0d575f5b60038160ff161015611d04575f8260ff166001148015611c9657508160ff166001145b611ca05786611ca2565b855b905083611cc683611cb48b6003613bf4565b611cbe9190613c17565b60ff16611363565b611cd585611cb48d6003613bf4565b83604051602001611ce99493929190613c30565b60408051601f19818403018152919052935050600101611c73565b50600101611c65565b5095945050505050565b606083515f03611d35575060408051602081019091525f81526107aa565b5f82611d6557600385516004611d4b91906123f2565b611d569060026123df565b611d609190613b28565b611d8a565b600385516002611d7591906123df565b611d7f9190613b28565b611d8a9060046123f2565b90505f8167ffffffffffffffff811115611da657611da661227a565b6040519080825280601f01601f191660200182016040528015611dd0576020820181803683370190505b509050600185016020820187885189016020810180515f82525b82841015611e45576003840193508351603f8160121c168701518653600186019550603f81600c1c168701518653600186019550603f8160061c168701518653600186019550603f8116870151865350600185019450611dea565b905250508515611e8657600388510660018114611e695760028114611e7c57611e84565b603d6001830353603d6002830353611e84565b603d60018303535b505b50909695505050505050565b611e9d838383611f1f565b6109b9576001600160a01b038316611ecb57604051637e27328960e01b8152600481018290526024016107d6565b60405163177e802f60e01b81526001600160a01b0383166004820152602481018290526044016107d6565b5f818310611f10575f8281526020849052604090206107aa565b505f9182526020526040902090565b5f6001600160a01b038316158015906107a75750826001600160a01b0316846001600160a01b03161480611f585750611f588484610dab565b806107a75750505f908152600460205260409020546001600160a01b03908116911614919050565b6040518061030001604052806018906020820280368337509192915050565b6001600160e01b031981168114610e12575f80fd5b5f60208284031215611fc4575f80fd5b81356107aa81611f9f565b5f81518084528060208401602086015e5f602082860101526020601f19601f83011685010191505092915050565b602081525f6107aa6020830184611fcf565b5f6020828403121561201f575f80fd5b5035919050565b6001600160a01b0381168114610e12575f80fd5b5f806040838503121561204b575f80fd5b823561205681612026565b946020939093013593505050565b5f8060408385031215612075575f80fd5b50508035926020909101359150565b803560ff81168114610937575f80fd5b5f805f606084860312156120a6575f80fd5b6120af84612084565b92506120bd60208501612084565b91506120cb60408501612084565b90509250925092565b5f805f606084860312156120e6575f80fd5b83356120f181612026565b9250602084013561210181612026565b929592945050506040919091013590565b5f60208284031215612122575f80fd5b6107aa82612084565b602080825282518282018190525f9190848201906040850190845b81811015611e8657835183529284019291840191600101612146565b5f60208284031215612172575f80fd5b81356107aa81612026565b5f806020838503121561218e575f80fd5b823567ffffffffffffffff808211156121a5575f80fd5b818501915085601f8301126121b8575f80fd5b8135818111156121c6575f80fd5b8660208260051b85010111156121da575f80fd5b60209290920196919550909350505050565b5f80604083850312156121fd575f80fd5b823561220881612026565b91506020830135801515811461221c575f80fd5b809150509250929050565b5f805f806080858703121561223a575f80fd5b61224385612084565b935061225160208601612084565b925061225f60408601612084565b9150606085013561226f81612026565b939692955090935050565b634e487b7160e01b5f52604160045260245ffd5b5f805f80608085870312156122a1575f80fd5b84356122ac81612026565b935060208501356122bc81612026565b925060408501359150606085013567ffffffffffffffff808211156122df575f80fd5b818701915087601f8301126122f2575f80fd5b8135818111156123045761230461227a565b604051601f8201601f19908116603f0116810190838211818310171561232c5761232c61227a565b816040528281528a6020848701011115612344575f80fd5b826020860160208301375f60208483010152809550505050505092959194509250565b5f8060408385031215612378575f80fd5b823561238381612026565b9150602083013561221c81612026565b600181811c908216806123a757607f821691505b6020821081036123c557634e487b7160e01b5f52602260045260245ffd5b50919050565b634e487b7160e01b5f52601160045260245ffd5b808201808211156106a5576106a56123cb565b80820281158282048414176106a5576106a56123cb565b634e487b7160e01b5f52603260045260245ffd5b818103818111156106a5576106a56123cb565b5f81518060208401855e5f93019283525090919050565b7f646174613a6170706c69636174696f6e2f6a736f6e3b757466382c7b226e616d8152670ca447444e4cec4560c31b60208201525f612489602883018b612430565b600b60fa1b80825261249e600183018c612430565b90815290506124b0600182018a612430565b71149116113232b9b1b934b83a34b7b7111d1160711b815290506124d76012820189612430565b90507f222c22696d616765223a22646174613a696d6167652f7376672b786d6c3b62618152641cd94d8d0b60da1b60208201526125176025820188612430565b7f222c2261747472696275746573223a5b7b2274726169745f74797065223a227281526a1116113b30b63ab2911d1160a91b6020820152905061255d602b820187612430565b7f227d2c7b2274726169745f74797065223a2267222c2276616c7565223a2200008152905061258f601e820186612430565b7f227d2c7b2274726169745f74797065223a2262222c2276616c7565223a220000815290506125c1601e820185612430565b63227d5d7d60e01b81526004019b9a5050505050505050505050565b7f646174613a6170706c69636174696f6e2f6a736f6e3b757466382c7b226e616d81526332911d1160e11b60208201525f61261b6024830185612430565b701116113232b9b1b934b83a34b7b7111d1160791b815261263f6011820185612430565b90507f222c22696d616765223a22646174613a696d6167652f7376672b786d6c3b626181527f736536342c50484e325a79423361575230614430694d5441774d43496761475660208201527f705a326830505349784d4441774969423261575633516d39345053497749444160408201527f674d5441774d4341784d4441774969426d6157787350534a756232356c49694260608201527f3462577875637a30696148523063446f764c336433647935334d793576636d6360808201527f764d6a41774d43397a646d6369506a78795a574e30494864705a48526f50534960a08201527f784d4441774969426f5a576c6e61485139496a45774d44416949475a7062477760c08201527f39496e646f6158526c4969382b50484a6c59335167654430694d6a557749694260e08201527f355053497a4e544169494864705a48526f505349784d4441694947686c6157646101008201527f6f644430694d5441774969426d615778735053496a4d444247526a4177496938806101208301527f2b50484a6c59335167654430694d6a557749694235505349304e5441694948646101408301527f705a48526f505349784d4441694947686c6157646f644430694d544177496942806101608401527f6d615778735053496a4d444247526a41774969382b50484a6c593351676544306101808401527f694d6a557749694235505349314e544169494864705a48526f505349784d44416101a08401527f694947686c6157646f644430694d5441774969426d615778735053496a4d44426101c08401527f47526a41774969382b50484a6c59335167654430694d6a5577496942355053496101e08401527f324e544169494864705a48526f505349784d4441694947686c6157646f644430806102008501527f694d5441774969426d615778735053496a4d444247526a41774969382b50484a806102208601527f6c59335167654430694d7a557749694235505349794e544169494864705a48526102408601527f6f505349784d4441694947686c6157646f644430694d5441774969426d615778806102608701527f735053496a526b59774d4441774969382b50484a6c59335167654430694d7a556102808701527f7749694235505349304e544169494864705a48526f505349784d4441694947686102a08701527f6c6157646f644430694d5441774969426d615778735053496a4d4441774d455a806102c08801527f474969382b50484a6c59335167654430694d7a557749694235505349314e54416102e08801527f69494864705a48526f505349784d4441694947686c6157646f644430694d5441806103008901527f774969426d615778735053496a4d4441774d455a474969382b50484a6c593351806103208a01527f67654430694d7a557749694235505349324e544169494864705a48526f5053496103408a01527f784d4441694947686c6157646f644430694d5441774969426d61577873505349806103608b01527f6a4d444247526a41774969382b50484a6c59335167654430694e4455774969426103808b01527f35505349794e544169494864705a48526f505349784d4441694947686c6157646103a08b01527f6f644430694d5441774969426d615778735053496a526b59774d4441774969386103c08b01527f2b50484a6c59335167654430694e445577496942355053497a4e5441694948646103e08b0152876104008b01527f6d615778735053496a4d4441774d455a474969382b50484a6c593351676544306104208b01527f694e44557749694235505349314e544169494864705a48526f505349784d44416104408b01527f694947686c6157646f644430694d5441774969426d615778735053496a4d44416104608b01527f774d455a474969382b50484a6c59335167654430694e445577496942355053496104808b0152866104a08b0152856104c08b01527f6c59335167654430694e54557749694235505349794e544169494864705a48526104e08b0152846105008b01527f735053496a526b59774d4441774969382b50484a6c59335167654430694e54556105208b01527f77496942355053497a4e544169494864705a48526f505349784d4441694947686105408b0152836105608b01527f474969382b50484a6c59335167654430694e54557749694235505349304e54416105808b0152826105a08b0152816105c08b01527f67654430694e54557749694235505349314e544169494864705a48526f5053496105e08b0152806106008b0152505050507f6a4d4441774d455a474969382b50484a6c59335167654430694e5455774969426106208701527f35505349324e544169494864705a48526f505349784d4441694947686c615764610640870152846106608701527f2b50484a6c59335167654430694e6a557749694235505349794e544169494864610680870152836106a08701527f6d615778735053496a526b59774d4441774969382b50484a6c593351676544306106c08701527f694e6a5577496942355053497a4e544169494864705a48526f505349784d44416106e08701527f694947686c6157646f644430694d5441774969426d615778735053496a526b596107008701527f774d4441774969382b50484a6c59335167654430694e6a5577496942355053496107208701527f304e544169494864705a48526f505349784d4441694947686c6157646f6444306107408701527f694d5441774969426d615778735053496a526b59774d4441774969382b50484a6107608701527f6c59335167654430694e6a557749694235505349314e544169494864705a4852610780870152806107a087015250505050507f735053496a526b59774d4441774969382b5043397a646d632b222c2262616e6e6107c08201527f65725f696d616765223a22646174613a696d6167652f7376672b786d6c3b62616107e08201527f736536342c50484e325a79423361575230614430694d5451774d4349676147566108008201527f705a3268305053497a4e54416949485a705a58644362336739496a41674d43416108208201527f784e44417749444d314d4349675a6d6c7362443069626d39755a5349676547316108408201527f73626e4d39496d6830644841364c79393364336375647a4d7562334a6e4c7a496108608201527f774d44417663335a6e496a3438636d566a6443423361575230614430694d54516108808201527f774d434967614756705a3268305053497a4e54416949475a7062477739496e646108a08201527f6f6158526c4969382b50484268644767675a6d6c73624331796457786c50534a6108c08201527f6c646d56756232526b4969426a62476c774c584a3162475539496d56325a57356108e08201527f765a47516949475139496b30314d5449674d5445315344557a4e6c59784d7a6c6109008201527f494e544579566a45784e56704e4e544d32494445784e5567314e6a42574d544d6109208201527f355344557a4e6c59784d545661545455324d4341784d7a6c494e544d32566a456109408201527f324d3067314e6a42574d544d35576b30304f4467674d544d35534455784d6c596109608201527f784e6a4e4d4e544579494445324d3159784f4459754f546b34566a45344e31596109808201527f794d5441754f546b34534451344f4659784f4464574d5467324c6a6b354f46596109a08201527f784e6a4e4d4e446734494445324d3159784d7a6c615454557a4e6941784e6a4e6109c08201527f494e544579566a45344e6934354f5468574d546733566a49784d4334354f54686109e08201527f494e544d32566a45344e3159784f4459754f546b34566a45324d31704e4e544d610a008201527f32494445344e6934354f5468494e545977566a49784d4334354f5468494e544d610a208201527f32566a45344e6934354f546861545455784d6941794d5446494e544d32566a49610a408201527f7a4e5567314d544a574d6a4578576b30314e6a41674d6a45785344557a4e6c59610a608201527f794d7a56494e545977566a49784d56704e4e446734494449784d5567314d544a610a808201527f574d6a4d31534451344f4659794d544661545459774f4341784d5456494e5467610aa08201527f30566a457a4f5567324d4468574d544531576b30314e6a41674d544531534455610ac08201527f344e4659784d7a6c494e545977566a45784e56704e4e6a41344944457a4f5567610ae08201527f314f4452574d54597a566a45324d3159784f4459754f546b34566a45344e3159610b008201527f794d5441754f546b34534459774f4659784f4464574d5467324c6a6b354f4659610b208201527f784e6a4e574d54597a566a457a4f56704e4e5459774944457a4f5567314f4452610b408201527f574d54597a566a45324d3159784f4459754f546b34566a45344e3159794d544180610b608301527f754f546b34534455324d4659784f4464574d5467324c6a6b354f4659784e6a4e610b808301527f574d54597a566a457a4f56704e4e546730494449784d5567314e6a42574d6a4d610ba08301527f31534455344e4659794d5446614969426d615778735053496a526b59774d4441610bc08301527f774969382b50484268644767675a6d6c73624331796457786c50534a6c646d56610be08301527f756232526b4969426a62476c774c584a3162475539496d56325a5735765a4751610c008301527f6949475139496b30324e6a51674d544531534459344f4659784d7a6c494e6a59610c208301527f30566a45784e56704e4e6a6734494445784e5567334d544a574d544d35534459610c408301527f344f4659784d545661545463784d6941784d7a6c494e6a6734566a45324d3067610c608301527f334d544a574d544d35576b30324e4441674d544d35534459324e4659784e6a4e610c808301527f4d4e6a5930494445324d3159784f4459754f546b34566a45344e3159794d5441610ca08301527f754f546b34534459304d4659784f4464574d5467324c6a6b354f4659784e6a4e610cc08301527f4d4e6a5177494445324d3159784d7a6c61545459344f4341784e6a4e494e6a59610ce08301527f30566a45344e6934354f5468574d546733566a49784d4334354f5468494e6a67610d008301527f34566a45344e3159784f4459754f546b34566a45324d31704e4e6a6734494445610d208301527f344e6934354f5468494e7a4579566a49784d4334354f5468494e6a6734566a45610d408301527f344e6934354f546861545459324e4341794d5446494e6a6734566a497a4e5567610d608301527f324e6a52574d6a4578576b30334d5449674d6a4578534459344f4659794d7a56610d808301527f494e7a4579566a49784d56704e4e6a5177494449784d5567324e6a52574d6a4d610da08301527f31534459304d4659794d544661545463324d4341784d5456494e7a4d32566a45610dc08301527f7a4f5567334e6a42574d544531576b30334d5449674d5445315344637a4e6c59610de08301527f784d7a6c494e7a4579566a45784e56704e4e7a59774944457a4f5567334d7a5a610e0083015280610e20830152507f754f546b34534463324d4659784f4464574d5467324c6a6b354f4659784e6a4e610e408201527f574d54597a566a457a4f56704e4e7a45794944457a4f5567334d7a5a574d5459610e608201527f7a5444637a4e6941784f4459754f546b34566a45344e3159794d5441754f546b610e808201527f34534463784d6c59784f4464574d5467324c6a6b354f4659784e6a4e4d4e7a45610ea08201527f794944457a4f56704e4e7a4d32494449784d5567334d544a574d6a4d31534463610ec08201527f7a4e6c59794d5446614969426d615778735053496a4d444247526a4177496938610ee08201527f2b50484268644767675a6d6c73624331796457786c50534a6c646d5675623252610f008201527f6b4969426a62476c774c584a3162475539496d56325a5735765a475169494751610f208201527f39496b30344d5459674d544531534467304d4659784d7a6c494f444532566a45610f408201527f784e56704e4f445177494445784e5567344e6a52574d544d35534467304d4659610f608201527f784d545661545467324e4341784d7a6c494f445177566a45324d3067344e6a52610f808201527f574d544d35576b30334f5449674d544d35534467784e6c59784e6a4e4d4f4445610fa08201527f32494445324d3159784f4459754f546b34566a45344e3159794d5441754f546b610fc08201527f34534463354d6c59784f4464574d5467324c6a6b354f4659784e6a4e4d4e7a6b610fe08201527f79494445324d3159784d7a6c61545467304d4341784e6a4e494f444532566a456110008201527f344e6934354f5468574d546733566a49784d4334354f5468494f445177566a456110208201527f344e3159784f4459754f546b34566a45324d31704e4f445177494445344e69346110408201527f354f5468494f445930566a49784d4334354f5468494f445177566a45344e69346110608201527f354f546861545467784e6941794d5446494f445177566a497a4e5567344d545a6110808201527f574d6a4578576b30344e6a51674d6a4578534467304d4659794d7a56494f44596110a08201527f30566a49784d56704e4e7a6b79494449784d5567344d545a574d6a4d315344636110c08201527f354d6c59794d54466154546b784d6941784d5456494f446734566a457a4f55676110e08201527f354d544a574d544531576b30344e6a51674d544531534467344f4659784d7a6c6111008201527f494f445930566a45784e56704e4f5445794944457a4f5567344f4468574d54596111208201527f7a566a45324d3159784f4459754f546b34566a45344e3159794d5441754f546b6111408201527f3453446b784d6c59784f4464574d5467324c6a6b354f4659784e6a4e574d54596111608201527f7a566a457a4f56704e4f4459304944457a4f5567344f4468574d54597a566a456111808201527f324d3159784f4459754f546b34566a45344e3159794d5441754f546b345344676111a08201527f324e4659784f4464574d5467324c6a6b354f4659784e6a4e574d54597a566a456111c08201527f7a4f56704e4f446734494449784d5567344e6a52574d6a4d31534467344f46596111e08201527f794d5446614969426d615778735053496a4d4441774d455a474969382b504339611200820152667a646d632b227d60c81b61122082015261122781019150509392505050565b634e487b7160e01b5f52601260045260245ffd5b5f82613b2357613b23613b01565b500690565b5f82613b3657613b36613b01565b500490565b6001600160a01b03858116825284166020820152604081018390526080606082018190525f90613b6d90830184611fcf565b9695505050505050565b5f60208284031215613b87575f80fd5b81516107aa81611f9f565b60ff82811682821603908111156106a5576106a56123cb565b5f6107a7613bb98386612430565b84612430565b5f613bca8284612430565b651e17b9bb339f60d11b81526006019392505050565b634e487b7160e01b5f52603160045260245ffd5b60ff8181168382160290811690818114613c1057613c106123cb565b5092915050565b60ff81811683821601908111156106a5576106a56123cb565b5f613c3b8287612430565b681e3932b1ba103c1e9160b91b8152613c576009820187612430565b6411103c9e9160d91b81529050613c716005820186612430565b90507f222077696474683d223122206865696768743d2231222066696c6c3d220000008152613ca3601d820185612430565b631110179f60e11b815260040197965050505050505056fe4142434445464748494a4b4c4d4e4f505152535455565758595a6162636465666768696a6b6c6d6e6f707172737475767778797a303132333435363738392b2f3c73766720786d6c6e733d22687474703a2f2f7777772e77332e6f72672f323030302f737667222076696577426f783d2230203020313520313522206865696768743d22353132222077696474683d22353132222073686170652d72656e646572696e673d2263726973704564676573223ea2646970667358221220fa1885ef560b5fad236a9ba55dc5d40ac4b46e6d758f7dd722942f09e4c635d364736f6c63430008190033000000000000000000000000f3e2399c5d1c698a6c1dfa195adbd12a6afd1899000000000000000000000000000000000000000000000000000e35fa931a000000000000000000000000000000000000000000000000000000038d7ea4c68000000000000000000000000000cdf5228c53998d24176bea664c11dffe7b401d19c1b5e21037602577a7c1df76cca738965a6c40c5d1022309c27b43b3caa6db52",
        "nonce": "0x30",
        "chainId": "0x14a34"
      },
      "additionalContracts": [],
      "isFixedGasLimit": false
    },
    {
      "hash": "0x5cb9fd62cb8bc81e2a4997008bf68d5115a9d39e791244f3183be2179ee6079b",
      "transactionType": "CALL",
      "contractName": "RGBSignatures",
      "contractAddress": "0x000000009cbe1fb4f7d7e945311234a436bd80e2",
      "function": "adminMint(uint8,uint8,uint8,address)",
      "arguments": [
        "0",
        "0",
        "0",
        "0xf3e2399c5D1C698A6C1dfa195ADbd12a6AfD1899"
      ],
      "transaction": {
        "from": "0xf3e2399c5d1c698a6c1dfa195adbd12a6afd1899",
        "to": "0x000000009cbe1fb4f7d7e945311234a436bd80e2",
        "gas": "0x310cb",
        "value": "0x0",
        "input": "0xb31b0eac000000000000000000000000000000000000000000000000000000000000000000000000000000000000000000000000000000000000000000000000000000000000000000000000000000000000000000000000000000000000000000000000000000000000000000000000f3e2399c5d1c698a6c1dfa195adbd12a6afd1899",
        "nonce": "0x31",
        "chainId": "0x14a34"
      },
      "additionalContracts": [],
      "isFixedGasLimit": false
    },
    {
      "hash": "0xb700a7eb8a6f2424a25c8578212b733d1c7f4c5e8f092da3ac37ce85386c1ae1",
      "transactionType": "CALL",
      "contractName": "RGBSignatures",
      "contractAddress": "0x000000009cbe1fb4f7d7e945311234a436bd80e2",
      "function": "adminMint(uint8,uint8,uint8,address)",
      "arguments": [
        "255",
        "255",
        "255",
        "0xf3e2399c5D1C698A6C1dfa195ADbd12a6AfD1899"
      ],
      "transaction": {
        "from": "0xf3e2399c5d1c698a6c1dfa195adbd12a6afd1899",
        "to": "0x000000009cbe1fb4f7d7e945311234a436bd80e2",
        "gas": "0x35f28",
        "value": "0x0",
        "input": "0xb31b0eac00000000000000000000000000000000000000000000000000000000000000ff00000000000000000000000000000000000000000000000000000000000000ff00000000000000000000000000000000000000000000000000000000000000ff000000000000000000000000f3e2399c5d1c698a6c1dfa195adbd12a6afd1899",
        "nonce": "0x32",
        "chainId": "0x14a34"
      },
      "additionalContracts": [],
      "isFixedGasLimit": false
    },
    {
      "hash": "0xec83ab3ebb4b92e671d856131f95fa000311baa1a793dce39aa4204bf9f86cd3",
      "transactionType": "CALL",
      "contractName": "RGBSignatures",
      "contractAddress": "0x000000009cbe1fb4f7d7e945311234a436bd80e2",
      "function": "adminMint(uint8,uint8,uint8,address)",
      "arguments": [
        "255",
        "0",
        "0",
        "0xf3e2399c5D1C698A6C1dfa195ADbd12a6AfD1899"
      ],
      "transaction": {
        "from": "0xf3e2399c5d1c698a6c1dfa195adbd12a6afd1899",
        "to": "0x000000009cbe1fb4f7d7e945311234a436bd80e2",
        "gas": "0x35f05",
        "value": "0x0",
        "input": "0xb31b0eac00000000000000000000000000000000000000000000000000000000000000ff00000000000000000000000000000000000000000000000000000000000000000000000000000000000000000000000000000000000000000000000000000000000000000000000000000000f3e2399c5d1c698a6c1dfa195adbd12a6afd1899",
        "nonce": "0x33",
        "chainId": "0x14a34"
      },
      "additionalContracts": [],
      "isFixedGasLimit": false
    },
    {
      "hash": "0x1038d72330ba8268fff0cb0961a9df519b4d919c151012655139a15d55c4da35",
      "transactionType": "CALL",
      "contractName": "RGBSignatures",
      "contractAddress": "0x000000009cbe1fb4f7d7e945311234a436bd80e2",
      "function": "adminMint(uint8,uint8,uint8,address)",
      "arguments": [
        "0",
        "255",
        "0",
        "0xf3e2399c5D1C698A6C1dfa195ADbd12a6AfD1899"
      ],
      "transaction": {
        "from": "0xf3e2399c5d1c698a6c1dfa195adbd12a6afd1899",
        "to": "0x000000009cbe1fb4f7d7e945311234a436bd80e2",
        "gas": "0x35f05",
        "value": "0x0",
        "input": "0xb31b0eac000000000000000000000000000000000000000000000000000000000000000000000000000000000000000000000000000000000000000000000000000000ff0000000000000000000000000000000000000000000000000000000000000000000000000000000000000000f3e2399c5d1c698a6c1dfa195adbd12a6afd1899",
        "nonce": "0x34",
        "chainId": "0x14a34"
      },
      "additionalContracts": [],
      "isFixedGasLimit": false
    },
    {
      "hash": "0x78921bafdba2e752665550fb709bf9e5e7837e9576c4defbd305bf318391c137",
      "transactionType": "CALL",
      "contractName": "RGBSignatures",
      "contractAddress": "0x000000009cbe1fb4f7d7e945311234a436bd80e2",
      "function": "adminMint(uint8,uint8,uint8,address)",
      "arguments": [
        "0",
        "0",
        "255",
        "0xf3e2399c5D1C698A6C1dfa195ADbd12a6AfD1899"
      ],
      "transaction": {
        "from": "0xf3e2399c5d1c698a6c1dfa195adbd12a6afd1899",
        "to": "0x000000009cbe1fb4f7d7e945311234a436bd80e2",
        "gas": "0x35f05",
        "value": "0x0",
        "input": "0xb31b0eac0000000000000000000000000000000000000000000000000000000000000000000000000000000000000000000000000000000000000000000000000000000000000000000000000000000000000000000000000000000000000000000000ff000000000000000000000000f3e2399c5d1c698a6c1dfa195adbd12a6afd1899",
        "nonce": "0x35",
        "chainId": "0x14a34"
      },
      "additionalContracts": [],
      "isFixedGasLimit": false
    },
    {
      "hash": "0x6c32db4972046b29071f88c7ae7585b608cd08a6e9ef137e27ac5e085639dcb8",
      "transactionType": "CALL",
      "contractName": "RGBSignatures",
      "contractAddress": "0x000000009cbe1fb4f7d7e945311234a436bd80e2",
      "function": "adminMint(uint8,uint8,uint8,address)",
      "arguments": [
        "0",
        "255",
        "255",
        "0xf3e2399c5D1C698A6C1dfa195ADbd12a6AfD1899"
      ],
      "transaction": {
        "from": "0xf3e2399c5d1c698a6c1dfa195adbd12a6afd1899",
        "to": "0x000000009cbe1fb4f7d7e945311234a436bd80e2",
        "gas": "0x32f24",
        "value": "0x0",
        "input": "0xb31b0eac000000000000000000000000000000000000000000000000000000000000000000000000000000000000000000000000000000000000000000000000000000ff00000000000000000000000000000000000000000000000000000000000000ff000000000000000000000000f3e2399c5d1c698a6c1dfa195adbd12a6afd1899",
        "nonce": "0x36",
        "chainId": "0x14a34"
      },
      "additionalContracts": [],
      "isFixedGasLimit": false
    },
    {
      "hash": "0x2cd0d398b0ced0dfb585e95a8a99ba34038394bc22bf9d63ffb468cbce3f9420",
      "transactionType": "CALL",
      "contractName": "RGBSignatures",
      "contractAddress": "0x000000009cbe1fb4f7d7e945311234a436bd80e2",
      "function": "adminMint(uint8,uint8,uint8,address)",
      "arguments": [
        "255",
        "0",
        "255",
        "0xf3e2399c5D1C698A6C1dfa195ADbd12a6AfD1899"
      ],
      "transaction": {
        "from": "0xf3e2399c5d1c698a6c1dfa195adbd12a6afd1899",
        "to": "0x000000009cbe1fb4f7d7e945311234a436bd80e2",
        "gas": "0x32f24",
        "value": "0x0",
        "input": "0xb31b0eac00000000000000000000000000000000000000000000000000000000000000ff000000000000000000000000000000000000000000000000000000000000000000000000000000000000000000000000000000000000000000000000000000ff000000000000000000000000f3e2399c5d1c698a6c1dfa195adbd12a6afd1899",
        "nonce": "0x37",
        "chainId": "0x14a34"
      },
      "additionalContracts": [],
      "isFixedGasLimit": false
    },
    {
      "hash": "0xeac6d7ac1f91f8d70e8d09d491587a127ea7243f988c4855bcde6ef6322668e5",
      "transactionType": "CALL",
      "contractName": "RGBSignatures",
      "contractAddress": "0x000000009cbe1fb4f7d7e945311234a436bd80e2",
      "function": "adminMint(uint8,uint8,uint8,address)",
      "arguments": [
        "255",
        "255",
        "0",
        "0xf3e2399c5D1C698A6C1dfa195ADbd12a6AfD1899"
      ],
      "transaction": {
        "from": "0xf3e2399c5d1c698a6c1dfa195adbd12a6afd1899",
        "to": "0x000000009cbe1fb4f7d7e945311234a436bd80e2",
        "gas": "0x32f24",
        "value": "0x0",
        "input": "0xb31b0eac00000000000000000000000000000000000000000000000000000000000000ff00000000000000000000000000000000000000000000000000000000000000ff0000000000000000000000000000000000000000000000000000000000000000000000000000000000000000f3e2399c5d1c698a6c1dfa195adbd12a6afd1899",
        "nonce": "0x38",
        "chainId": "0x14a34"
      },
      "additionalContracts": [],
      "isFixedGasLimit": false
    },
    {
      "hash": "0x1f45a677083dc07112832a7f1cd6fcb19fa2a792eb0b25d9b4bd7db73ba70cd5",
      "transactionType": "CALL",
      "contractName": "RGBSignatures",
      "contractAddress": "0x000000009cbe1fb4f7d7e945311234a436bd80e2",
      "function": "adminMint(uint8,uint8,uint8,address)",
      "arguments": [
        "85",
        "85",
        "85",
        "0xD6507fC98605eAb8775f851c25A5E09Dc12ab7A7"
      ],
      "transaction": {
        "from": "0xf3e2399c5d1c698a6c1dfa195adbd12a6afd1899",
        "to": "0x000000009cbe1fb4f7d7e945311234a436bd80e2",
        "gas": "0x34f29",
        "value": "0x0",
        "input": "0xb31b0eac000000000000000000000000000000000000000000000000000000000000005500000000000000000000000000000000000000000000000000000000000000550000000000000000000000000000000000000000000000000000000000000055000000000000000000000000d6507fc98605eab8775f851c25a5e09dc12ab7a7",
        "nonce": "0x39",
        "chainId": "0x14a34"
      },
      "additionalContracts": [],
      "isFixedGasLimit": false
    },
    {
      "hash": "0xadde9af656a321eadc2d5e78cc814504f72a93a2c03f52b457eb1a7b5c69d33c",
      "transactionType": "CALL",
      "contractName": "RGBSignatures",
      "contractAddress": "0x000000009cbe1fb4f7d7e945311234a436bd80e2",
      "function": "transferOwnership(address)",
      "arguments": [
        "0x000000005d5Bd1cC7fF80ddCd46F245beC548EdF"
      ],
      "transaction": {
        "from": "0xf3e2399c5d1c698a6c1dfa195adbd12a6afd1899",
        "to": "0x000000009cbe1fb4f7d7e945311234a436bd80e2",
        "gas": "0xa3a1",
        "value": "0x0",
        "input": "0xf2fde38b000000000000000000000000000000005d5bd1cc7ff80ddcd46f245bec548edf",
        "nonce": "0x3a",
        "chainId": "0x14a34"
      },
      "additionalContracts": [],
      "isFixedGasLimit": false
    }
  ],
  "receipts": [
    {
      "status": "0x1",
      "cumulativeGasUsed": "0x69a79d",
      "logs": [
        {
          "address": "0x000000009cbe1fb4f7d7e945311234a436bd80e2",
          "topics": [
            "0x8be0079c531659141344cd1fd0a4f28419497f9722a3daafe3b4186f6b6457e0",
            "0x0000000000000000000000000000000000000000000000000000000000000000",
            "0x000000000000000000000000f3e2399c5d1c698a6c1dfa195adbd12a6afd1899"
          ],
          "data": "0x",
          "blockHash": "0xaebdfbe0f3a41cd36a0ec723d022047b08c8441005d22ccc0afd2de0c3d8ecd7",
          "blockNumber": "0x12553db",
          "transactionHash": "0x8476c7f8e264ab88fa85ac47bf11722769b85bf0cd4ddad236299fe4731e29f4",
          "transactionIndex": "0x12",
          "logIndex": "0x1d",
          "removed": false
        }
      ],
      "logsBloom": "0x00000000000000000000000000000000000000000000000000800000000000000000000000000000000000000000000000000000000000000000000000000000000000000000000000000000000000000001001000000000000000000000000000000004020000000000000000000800000000000000000000000000000000400000000000000000000000000000000000000000000000000000000002000000000000000000000000000000000000000000000000000000000000000000000000000000000000000000000000000008000000000000400010000000000020000000000000000000000000000000000000000000000000000000000000000000",
      "type": "0x2",
      "transactionHash": "0x8476c7f8e264ab88fa85ac47bf11722769b85bf0cd4ddad236299fe4731e29f4",
      "transactionIndex": "0x12",
      "blockHash": "0xaebdfbe0f3a41cd36a0ec723d022047b08c8441005d22ccc0afd2de0c3d8ecd7",
      "blockNumber": "0x12553db",
      "gasUsed": "0x379a8f",
      "effectiveGasPrice": "0x187b6",
      "from": "0xf3e2399c5d1c698a6c1dfa195adbd12a6afd1899",
      "to": "0x4e59b44847b379578588920ca78fbf26c0b4956c",
      "contractAddress": "0x000000009cbe1fb4f7d7e945311234a436bd80e2",
      "l1BaseFeeScalar": "0x44d",
      "l1BlobBaseFee": "0x1",
      "l1BlobBaseFeeScalar": "0xa118b",
      "l1Fee": "0x41b3a64f83",
      "l1GasPrice": "0x6890095f",
      "l1GasUsed": "0x23ab4"
    },
    {
      "status": "0x1",
      "cumulativeGasUsed": "0x6bdfcb",
      "logs": [
        {
          "address": "0x000000009cbe1fb4f7d7e945311234a436bd80e2",
          "topics": [
            "0xddf252ad1be2c89b69c2b068fc378daa952ba7f163c4a11628f55a4df523b3ef",
            "0x0000000000000000000000000000000000000000000000000000000000000000",
            "0x000000000000000000000000f3e2399c5d1c698a6c1dfa195adbd12a6afd1899",
            "0x0000000000000000000000000000000000000000000000000000000000000001"
          ],
          "data": "0x",
          "blockHash": "0xaebdfbe0f3a41cd36a0ec723d022047b08c8441005d22ccc0afd2de0c3d8ecd7",
          "blockNumber": "0x12553db",
          "transactionHash": "0x5cb9fd62cb8bc81e2a4997008bf68d5115a9d39e791244f3183be2179ee6079b",
          "transactionIndex": "0x13",
          "logIndex": "0x1e",
          "removed": false
        },
        {
          "address": "0x000000009cbe1fb4f7d7e945311234a436bd80e2",
          "topics": [
            "0x5a3e96f397e68b20a43c25f664b628805b877334dadfcc925c6c1a3ad4340458",
            "0x0000000000000000000000000000000000000000000000000000000000000001"
          ],
          "data": "0x000000000000000000000000f3e2399c5d1c698a6c1dfa195adbd12a6afd1899000000000000000000000000000000000000000000000000000000000000000100000000000000000000000000000000000000000000000000000000675e0696",
          "blockHash": "0xaebdfbe0f3a41cd36a0ec723d022047b08c8441005d22ccc0afd2de0c3d8ecd7",
          "blockNumber": "0x12553db",
          "transactionHash": "0x5cb9fd62cb8bc81e2a4997008bf68d5115a9d39e791244f3183be2179ee6079b",
          "transactionIndex": "0x13",
          "logIndex": "0x1f",
          "removed": false
        }
      ],
      "logsBloom": "0x00000000000000000000000000000000000000000000000000000000000000000000000000000000000000000000000000000000000000000000000000040000000000000000000000000008000000000000001000840000000000000400000000000004020000000000000080000800000000000000000000000010000000000000000000000000000000000000000000000000000000000000000002000000000000000000000000000000000000000000000000000000000000000000000000000002000000000000000000000008000000000000400010000000000060000000000000000000000000000000000000000000000000000000000000000000",
      "type": "0x2",
      "transactionHash": "0x5cb9fd62cb8bc81e2a4997008bf68d5115a9d39e791244f3183be2179ee6079b",
      "transactionIndex": "0x13",
      "blockHash": "0xaebdfbe0f3a41cd36a0ec723d022047b08c8441005d22ccc0afd2de0c3d8ecd7",
      "blockNumber": "0x12553db",
      "gasUsed": "0x2382e",
      "effectiveGasPrice": "0x187b6",
      "from": "0xf3e2399c5d1c698a6c1dfa195adbd12a6afd1899",
      "to": "0x000000009cbe1fb4f7d7e945311234a436bd80e2",
      "contractAddress": null,
      "l1BaseFeeScalar": "0x44d",
      "l1BlobBaseFee": "0x1",
      "l1BlobBaseFeeScalar": "0xa118b",
      "l1Fee": "0xb8329304",
      "l1GasPrice": "0x6890095f",
      "l1GasUsed": "0x640"
    },
    {
      "status": "0x1",
      "cumulativeGasUsed": "0x6e2dfd",
      "logs": [
        {
          "address": "0x000000009cbe1fb4f7d7e945311234a436bd80e2",
          "topics": [
            "0xddf252ad1be2c89b69c2b068fc378daa952ba7f163c4a11628f55a4df523b3ef",
            "0x0000000000000000000000000000000000000000000000000000000000000000",
            "0x000000000000000000000000f3e2399c5d1c698a6c1dfa195adbd12a6afd1899",
            "0x0000000000000000000000000000000000000000000000000000000001000000"
          ],
          "data": "0x",
          "blockHash": "0xaebdfbe0f3a41cd36a0ec723d022047b08c8441005d22ccc0afd2de0c3d8ecd7",
          "blockNumber": "0x12553db",
          "transactionHash": "0xb700a7eb8a6f2424a25c8578212b733d1c7f4c5e8f092da3ac37ce85386c1ae1",
          "transactionIndex": "0x14",
          "logIndex": "0x20",
          "removed": false
        },
        {
          "address": "0x000000009cbe1fb4f7d7e945311234a436bd80e2",
          "topics": [
            "0x5a3e96f397e68b20a43c25f664b628805b877334dadfcc925c6c1a3ad4340458",
            "0x0000000000000000000000000000000000000000000000000000000001000000"
          ],
          "data": "0x000000000000000000000000f3e2399c5d1c698a6c1dfa195adbd12a6afd1899000000000000000000000000000000000000000000000000000000000000000200000000000000000000000000000000000000000000000000000000675e0696",
          "blockHash": "0xaebdfbe0f3a41cd36a0ec723d022047b08c8441005d22ccc0afd2de0c3d8ecd7",
          "blockNumber": "0x12553db",
          "transactionHash": "0xb700a7eb8a6f2424a25c8578212b733d1c7f4c5e8f092da3ac37ce85386c1ae1",
          "transactionIndex": "0x14",
          "logIndex": "0x21",
          "removed": false
        }
      ],
      "logsBloom": "0x00000000000000000000000000000000000000000000000000000000000000000000000000000000000000000000000000000000000000000000000000000000000000004000000000000008000000000000001000800000000000000400000000000004020000000000000080000800000000000000000000000010000000000000000000010000000000000000000000000000000000000000000002000000000000000000000000000000000000000000000000000000040000000000000000000002000000000000000000000008000000000000400010000000000020000000000000000000000000000000000000000000000000000000000000000000",
      "type": "0x2",
      "transactionHash": "0xb700a7eb8a6f2424a25c8578212b733d1c7f4c5e8f092da3ac37ce85386c1ae1",
      "transactionIndex": "0x14",
      "blockHash": "0xaebdfbe0f3a41cd36a0ec723d022047b08c8441005d22ccc0afd2de0c3d8ecd7",
      "blockNumber": "0x12553db",
      "gasUsed": "0x24e32",
      "effectiveGasPrice": "0x187b6",
      "from": "0xf3e2399c5d1c698a6c1dfa195adbd12a6afd1899",
      "to": "0x000000009cbe1fb4f7d7e945311234a436bd80e2",
      "contractAddress": null,
      "l1BaseFeeScalar": "0x44d",
      "l1BlobBaseFee": "0x1",
      "l1BlobBaseFeeScalar": "0xa118b",
      "l1Fee": "0xb8329304",
      "l1GasPrice": "0x6890095f",
      "l1GasUsed": "0x640"
    },
    {
      "status": "0x1",
      "cumulativeGasUsed": "0x707c17",
      "logs": [
        {
          "address": "0x000000009cbe1fb4f7d7e945311234a436bd80e2",
          "topics": [
            "0xddf252ad1be2c89b69c2b068fc378daa952ba7f163c4a11628f55a4df523b3ef",
            "0x0000000000000000000000000000000000000000000000000000000000000000",
            "0x000000000000000000000000f3e2399c5d1c698a6c1dfa195adbd12a6afd1899",
            "0x0000000000000000000000000000000000000000000000000000000000ff0001"
          ],
          "data": "0x",
          "blockHash": "0xaebdfbe0f3a41cd36a0ec723d022047b08c8441005d22ccc0afd2de0c3d8ecd7",
          "blockNumber": "0x12553db",
          "transactionHash": "0xec83ab3ebb4b92e671d856131f95fa000311baa1a793dce39aa4204bf9f86cd3",
          "transactionIndex": "0x15",
          "logIndex": "0x22",
          "removed": false
        },
        {
          "address": "0x000000009cbe1fb4f7d7e945311234a436bd80e2",
          "topics": [
            "0x5a3e96f397e68b20a43c25f664b628805b877334dadfcc925c6c1a3ad4340458",
            "0x0000000000000000000000000000000000000000000000000000000000ff0001"
          ],
          "data": "0x000000000000000000000000f3e2399c5d1c698a6c1dfa195adbd12a6afd1899000000000000000000000000000000000000000000000000000000000000000300000000000000000000000000000000000000000000000000000000675e0696",
          "blockHash": "0xaebdfbe0f3a41cd36a0ec723d022047b08c8441005d22ccc0afd2de0c3d8ecd7",
          "blockNumber": "0x12553db",
          "transactionHash": "0xec83ab3ebb4b92e671d856131f95fa000311baa1a793dce39aa4204bf9f86cd3",
          "transactionIndex": "0x15",
          "logIndex": "0x23",
          "removed": false
        }
      ],
      "logsBloom": "0x00000000000000000000000000000000000000000000000000000000000000000000000000000000000000000000000000000000000000000000000000000000000000000000000000000008000010000000001000800000000000000400000000000004020000000000000080000800000000000000000000000010000000000000000000000000000000000000000000000000010000000000000002000000000000000000000000000000000000000001000000000000000000000000000000000002000000000000000000000008000000000000400010000000000020000000000000000000000000000000000000000000000000000000000000000000",
      "type": "0x2",
      "transactionHash": "0xec83ab3ebb4b92e671d856131f95fa000311baa1a793dce39aa4204bf9f86cd3",
      "transactionIndex": "0x15",
      "blockHash": "0xaebdfbe0f3a41cd36a0ec723d022047b08c8441005d22ccc0afd2de0c3d8ecd7",
      "blockNumber": "0x12553db",
      "gasUsed": "0x24e1a",
      "effectiveGasPrice": "0x187b6",
      "from": "0xf3e2399c5d1c698a6c1dfa195adbd12a6afd1899",
      "to": "0x000000009cbe1fb4f7d7e945311234a436bd80e2",
      "contractAddress": null,
      "l1BaseFeeScalar": "0x44d",
      "l1BlobBaseFee": "0x1",
      "l1BlobBaseFeeScalar": "0xa118b",
      "l1Fee": "0xb8329304",
      "l1GasPrice": "0x6890095f",
      "l1GasUsed": "0x640"
    },
    {
      "status": "0x1",
      "cumulativeGasUsed": "0x72ca31",
      "logs": [
        {
          "address": "0x000000009cbe1fb4f7d7e945311234a436bd80e2",
          "topics": [
            "0xddf252ad1be2c89b69c2b068fc378daa952ba7f163c4a11628f55a4df523b3ef",
            "0x0000000000000000000000000000000000000000000000000000000000000000",
            "0x000000000000000000000000f3e2399c5d1c698a6c1dfa195adbd12a6afd1899",
            "0x000000000000000000000000000000000000000000000000000000000000ff01"
          ],
          "data": "0x",
          "blockHash": "0xaebdfbe0f3a41cd36a0ec723d022047b08c8441005d22ccc0afd2de0c3d8ecd7",
          "blockNumber": "0x12553db",
          "transactionHash": "0x1038d72330ba8268fff0cb0961a9df519b4d919c151012655139a15d55c4da35",
          "transactionIndex": "0x16",
          "logIndex": "0x24",
          "removed": false
        },
        {
          "address": "0x000000009cbe1fb4f7d7e945311234a436bd80e2",
          "topics": [
            "0x5a3e96f397e68b20a43c25f664b628805b877334dadfcc925c6c1a3ad4340458",
            "0x000000000000000000000000000000000000000000000000000000000000ff01"
          ],
          "data": "0x000000000000000000000000f3e2399c5d1c698a6c1dfa195adbd12a6afd1899000000000000000000000000000000000000000000000000000000000000000400000000000000000000000000000000000000000000000000000000675e0696",
          "blockHash": "0xaebdfbe0f3a41cd36a0ec723d022047b08c8441005d22ccc0afd2de0c3d8ecd7",
          "blockNumber": "0x12553db",
          "transactionHash": "0x1038d72330ba8268fff0cb0961a9df519b4d919c151012655139a15d55c4da35",
          "transactionIndex": "0x16",
          "logIndex": "0x25",
          "removed": false
        }
      ],
      "logsBloom": "0x00000000000000000000000000000000000000000000000000000000000000000000000000000000000000000000000000000000000000000000000000000000000400000000000000000008000000000040001000800000000000000400000000000004020000000000000080000800000000000000000000000010000000000000000000000000000000000000000000000000000000000000000002000000000000000000000000000000000000000000000000000000000000000000000000000002000000000000000000000008000000000000400010000000000020000000000000000000000000000000000000001000000000000000000000000000",
      "type": "0x2",
      "transactionHash": "0x1038d72330ba8268fff0cb0961a9df519b4d919c151012655139a15d55c4da35",
      "transactionIndex": "0x16",
      "blockHash": "0xaebdfbe0f3a41cd36a0ec723d022047b08c8441005d22ccc0afd2de0c3d8ecd7",
      "blockNumber": "0x12553db",
      "gasUsed": "0x24e1a",
      "effectiveGasPrice": "0x187b6",
      "from": "0xf3e2399c5d1c698a6c1dfa195adbd12a6afd1899",
      "to": "0x000000009cbe1fb4f7d7e945311234a436bd80e2",
      "contractAddress": null,
      "l1BaseFeeScalar": "0x44d",
      "l1BlobBaseFee": "0x1",
      "l1BlobBaseFeeScalar": "0xa118b",
      "l1Fee": "0xb8329304",
      "l1GasPrice": "0x6890095f",
      "l1GasUsed": "0x640"
    },
    {
      "status": "0x1",
      "cumulativeGasUsed": "0x75184b",
      "logs": [
        {
          "address": "0x000000009cbe1fb4f7d7e945311234a436bd80e2",
          "topics": [
            "0xddf252ad1be2c89b69c2b068fc378daa952ba7f163c4a11628f55a4df523b3ef",
            "0x0000000000000000000000000000000000000000000000000000000000000000",
            "0x000000000000000000000000f3e2399c5d1c698a6c1dfa195adbd12a6afd1899",
            "0x0000000000000000000000000000000000000000000000000000000000000100"
          ],
          "data": "0x",
          "blockHash": "0xaebdfbe0f3a41cd36a0ec723d022047b08c8441005d22ccc0afd2de0c3d8ecd7",
          "blockNumber": "0x12553db",
          "transactionHash": "0x78921bafdba2e752665550fb709bf9e5e7837e9576c4defbd305bf318391c137",
          "transactionIndex": "0x17",
          "logIndex": "0x26",
          "removed": false
        },
        {
          "address": "0x000000009cbe1fb4f7d7e945311234a436bd80e2",
          "topics": [
            "0x5a3e96f397e68b20a43c25f664b628805b877334dadfcc925c6c1a3ad4340458",
            "0x0000000000000000000000000000000000000000000000000000000000000100"
          ],
          "data": "0x000000000000000000000000f3e2399c5d1c698a6c1dfa195adbd12a6afd1899000000000000000000000000000000000000000000000000000000000000000500000000000000000000000000000000000000000000000000000000675e0696",
          "blockHash": "0xaebdfbe0f3a41cd36a0ec723d022047b08c8441005d22ccc0afd2de0c3d8ecd7",
          "blockNumber": "0x12553db",
          "transactionHash": "0x78921bafdba2e752665550fb709bf9e5e7837e9576c4defbd305bf318391c137",
          "transactionIndex": "0x17",
          "logIndex": "0x27",
          "removed": false
        }
      ],
      "logsBloom": "0x00000000000000000000000000000000000000000000000000000000000000000000000000000000000000000000000000000000000000010000000000000000000000010000000000000008000000000000001000800000000000000400000000000004020000000000000080000800000000000000000000000010000000000000000000000000000000000000000000000000000000000000000002000000000000000000000000000000000000000000000000000000000000000000000000000002000000000000000000000008000000000000400010000000000020000000000000000000020000000000000000000000000000000000000000000000",
      "type": "0x2",
      "transactionHash": "0x78921bafdba2e752665550fb709bf9e5e7837e9576c4defbd305bf318391c137",
      "transactionIndex": "0x17",
      "blockHash": "0xaebdfbe0f3a41cd36a0ec723d022047b08c8441005d22ccc0afd2de0c3d8ecd7",
      "blockNumber": "0x12553db",
      "gasUsed": "0x24e1a",
      "effectiveGasPrice": "0x187b6",
      "from": "0xf3e2399c5d1c698a6c1dfa195adbd12a6afd1899",
      "to": "0x000000009cbe1fb4f7d7e945311234a436bd80e2",
      "contractAddress": null,
      "l1BaseFeeScalar": "0x44d",
      "l1BlobBaseFee": "0x1",
      "l1BlobBaseFeeScalar": "0xa118b",
      "l1Fee": "0xb8329304",
      "l1GasPrice": "0x6890095f",
      "l1GasUsed": "0x640"
    },
    {
      "status": "0x1",
      "cumulativeGasUsed": "0x776671",
      "logs": [
        {
          "address": "0x000000009cbe1fb4f7d7e945311234a436bd80e2",
          "topics": [
            "0xddf252ad1be2c89b69c2b068fc378daa952ba7f163c4a11628f55a4df523b3ef",
            "0x0000000000000000000000000000000000000000000000000000000000000000",
            "0x000000000000000000000000f3e2399c5d1c698a6c1dfa195adbd12a6afd1899",
            "0x0000000000000000000000000000000000000000000000000000000000010000"
          ],
          "data": "0x",
          "blockHash": "0xaebdfbe0f3a41cd36a0ec723d022047b08c8441005d22ccc0afd2de0c3d8ecd7",
          "blockNumber": "0x12553db",
          "transactionHash": "0x6c32db4972046b29071f88c7ae7585b608cd08a6e9ef137e27ac5e085639dcb8",
          "transactionIndex": "0x18",
          "logIndex": "0x28",
          "removed": false
        },
        {
          "address": "0x000000009cbe1fb4f7d7e945311234a436bd80e2",
          "topics": [
            "0x5a3e96f397e68b20a43c25f664b628805b877334dadfcc925c6c1a3ad4340458",
            "0x0000000000000000000000000000000000000000000000000000000000010000"
          ],
          "data": "0x000000000000000000000000f3e2399c5d1c698a6c1dfa195adbd12a6afd1899000000000000000000000000000000000000000000000000000000000000000600000000000000000000000000000000000000000000000000000000675e0696",
          "blockHash": "0xaebdfbe0f3a41cd36a0ec723d022047b08c8441005d22ccc0afd2de0c3d8ecd7",
          "blockNumber": "0x12553db",
          "transactionHash": "0x6c32db4972046b29071f88c7ae7585b608cd08a6e9ef137e27ac5e085639dcb8",
          "transactionIndex": "0x18",
          "logIndex": "0x29",
          "removed": false
        }
      ],
      "logsBloom": "0x00000000000000000000000000000000000000000000000000000000000010000000000000000000000000000100000000000000000000000000000000000000000000000000000000000008000000000000001000800000000000000400000000000004020000000000000080000800000000000000000000000010000000000000000000000000000000000000000000000000000000000000000002000000000000000000000000000000000000000000000000001000000000000000000000000002000000000000000000000008000000000000400010000000000020000000000000000000000000000000000000000000000000000000000000000000",
      "type": "0x2",
      "transactionHash": "0x6c32db4972046b29071f88c7ae7585b608cd08a6e9ef137e27ac5e085639dcb8",
      "transactionIndex": "0x18",
      "blockHash": "0xaebdfbe0f3a41cd36a0ec723d022047b08c8441005d22ccc0afd2de0c3d8ecd7",
      "blockNumber": "0x12553db",
      "gasUsed": "0x24e26",
      "effectiveGasPrice": "0x187b6",
      "from": "0xf3e2399c5d1c698a6c1dfa195adbd12a6afd1899",
      "to": "0x000000009cbe1fb4f7d7e945311234a436bd80e2",
      "contractAddress": null,
      "l1BaseFeeScalar": "0x44d",
      "l1BlobBaseFee": "0x1",
      "l1BlobBaseFeeScalar": "0xa118b",
      "l1Fee": "0xb8329304",
      "l1GasPrice": "0x6890095f",
      "l1GasUsed": "0x640"
    },
    {
      "status": "0x1",
      "cumulativeGasUsed": "0x79b497",
      "logs": [
        {
          "address": "0x000000009cbe1fb4f7d7e945311234a436bd80e2",
          "topics": [
            "0xddf252ad1be2c89b69c2b068fc378daa952ba7f163c4a11628f55a4df523b3ef",
            "0x0000000000000000000000000000000000000000000000000000000000000000",
            "0x000000000000000000000000f3e2399c5d1c698a6c1dfa195adbd12a6afd1899",
            "0x0000000000000000000000000000000000000000000000000000000000ff0100"
          ],
          "data": "0x",
          "blockHash": "0xaebdfbe0f3a41cd36a0ec723d022047b08c8441005d22ccc0afd2de0c3d8ecd7",
          "blockNumber": "0x12553db",
          "transactionHash": "0x2cd0d398b0ced0dfb585e95a8a99ba34038394bc22bf9d63ffb468cbce3f9420",
          "transactionIndex": "0x19",
          "logIndex": "0x2a",
          "removed": false
        },
        {
          "address": "0x000000009cbe1fb4f7d7e945311234a436bd80e2",
          "topics": [
            "0x5a3e96f397e68b20a43c25f664b628805b877334dadfcc925c6c1a3ad4340458",
            "0x0000000000000000000000000000000000000000000000000000000000ff0100"
          ],
          "data": "0x000000000000000000000000f3e2399c5d1c698a6c1dfa195adbd12a6afd1899000000000000000000000000000000000000000000000000000000000000000700000000000000000000000000000000000000000000000000000000675e0696",
          "blockHash": "0xaebdfbe0f3a41cd36a0ec723d022047b08c8441005d22ccc0afd2de0c3d8ecd7",
          "blockNumber": "0x12553db",
          "transactionHash": "0x2cd0d398b0ced0dfb585e95a8a99ba34038394bc22bf9d63ffb468cbce3f9420",
          "transactionIndex": "0x19",
          "logIndex": "0x2b",
          "removed": false
        }
      ],
      "logsBloom": "0x00000080000000000000000000000000000000000000000000000000000000000000000000000000000000000000000000000000000000000000000000000000000000000000000000000008000000000000001000800000000000000400000000000004020000000000000080000800000000000000800000000010000000000000000000000000000000000000000000000000000000000000000002000000000000000000000000000000000000000000000000000000000000000000000000000002000000000000000000000008000000000000400010000000000020000000000000000000000000000000000100000000000000000000000000000000",
      "type": "0x2",
      "transactionHash": "0x2cd0d398b0ced0dfb585e95a8a99ba34038394bc22bf9d63ffb468cbce3f9420",
      "transactionIndex": "0x19",
      "blockHash": "0xaebdfbe0f3a41cd36a0ec723d022047b08c8441005d22ccc0afd2de0c3d8ecd7",
      "blockNumber": "0x12553db",
      "gasUsed": "0x24e26",
      "effectiveGasPrice": "0x187b6",
      "from": "0xf3e2399c5d1c698a6c1dfa195adbd12a6afd1899",
      "to": "0x000000009cbe1fb4f7d7e945311234a436bd80e2",
      "contractAddress": null,
      "l1BaseFeeScalar": "0x44d",
      "l1BlobBaseFee": "0x1",
      "l1BlobBaseFeeScalar": "0xa118b",
      "l1Fee": "0xb8329304",
      "l1GasPrice": "0x6890095f",
      "l1GasUsed": "0x640"
    },
    {
      "status": "0x1",
      "cumulativeGasUsed": "0x7c02bd",
      "logs": [
        {
          "address": "0x000000009cbe1fb4f7d7e945311234a436bd80e2",
          "topics": [
            "0xddf252ad1be2c89b69c2b068fc378daa952ba7f163c4a11628f55a4df523b3ef",
            "0x0000000000000000000000000000000000000000000000000000000000000000",
            "0x000000000000000000000000f3e2399c5d1c698a6c1dfa195adbd12a6afd1899",
            "0x0000000000000000000000000000000000000000000000000000000000ffff01"
          ],
          "data": "0x",
          "blockHash": "0xaebdfbe0f3a41cd36a0ec723d022047b08c8441005d22ccc0afd2de0c3d8ecd7",
          "blockNumber": "0x12553db",
          "transactionHash": "0xeac6d7ac1f91f8d70e8d09d491587a127ea7243f988c4855bcde6ef6322668e5",
          "transactionIndex": "0x1a",
          "logIndex": "0x2c",
          "removed": false
        },
        {
          "address": "0x000000009cbe1fb4f7d7e945311234a436bd80e2",
          "topics": [
            "0x5a3e96f397e68b20a43c25f664b628805b877334dadfcc925c6c1a3ad4340458",
            "0x0000000000000000000000000000000000000000000000000000000000ffff01"
          ],
          "data": "0x000000000000000000000000f3e2399c5d1c698a6c1dfa195adbd12a6afd1899000000000000000000000000000000000000000000000000000000000000000800000000000000000000000000000000000000000000000000000000675e0696",
          "blockHash": "0xaebdfbe0f3a41cd36a0ec723d022047b08c8441005d22ccc0afd2de0c3d8ecd7",
          "blockNumber": "0x12553db",
          "transactionHash": "0xeac6d7ac1f91f8d70e8d09d491587a127ea7243f988c4855bcde6ef6322668e5",
          "transactionIndex": "0x1a",
          "logIndex": "0x2d",
          "removed": false
        }
      ],
      "logsBloom": "0x00000000000000000000000000000000000000000000000000000000000000000000000000000000000000000000000000000000000000000000000000000000000000000000000000000008200000000000001000800000000000000400000000000004020000000000000080000800000000000000000000000010000000000000000000000000000000000000000000000000000000000000000002000000000000000000000000000000000000000000000000000000000000000000000000000002000000000004000000000008000000000000400010000000000020000000000000000000000000000000000000000000000000000000000000000000",
      "type": "0x2",
      "transactionHash": "0xeac6d7ac1f91f8d70e8d09d491587a127ea7243f988c4855bcde6ef6322668e5",
      "transactionIndex": "0x1a",
      "blockHash": "0xaebdfbe0f3a41cd36a0ec723d022047b08c8441005d22ccc0afd2de0c3d8ecd7",
      "blockNumber": "0x12553db",
      "gasUsed": "0x24e26",
      "effectiveGasPrice": "0x187b6",
      "from": "0xf3e2399c5d1c698a6c1dfa195adbd12a6afd1899",
      "to": "0x000000009cbe1fb4f7d7e945311234a436bd80e2",
      "contractAddress": null,
      "l1BaseFeeScalar": "0x44d",
      "l1BlobBaseFee": "0x1",
      "l1BlobBaseFeeScalar": "0xa118b",
      "l1Fee": "0xb8329304",
      "l1GasPrice": "0x6890095f",
      "l1GasUsed": "0x640"
    },
    {
      "status": "0x1",
      "cumulativeGasUsed": "0x7e45ff",
      "logs": [
        {
          "address": "0x000000009cbe1fb4f7d7e945311234a436bd80e2",
          "topics": [
            "0xddf252ad1be2c89b69c2b068fc378daa952ba7f163c4a11628f55a4df523b3ef",
            "0x0000000000000000000000000000000000000000000000000000000000000000",
            "0x000000000000000000000000d6507fc98605eab8775f851c25a5e09dc12ab7a7",
            "0x0000000000000000000000000000000000000000000000000000000000555556"
          ],
          "data": "0x",
          "blockHash": "0xaebdfbe0f3a41cd36a0ec723d022047b08c8441005d22ccc0afd2de0c3d8ecd7",
          "blockNumber": "0x12553db",
          "transactionHash": "0x1f45a677083dc07112832a7f1cd6fcb19fa2a792eb0b25d9b4bd7db73ba70cd5",
          "transactionIndex": "0x1b",
          "logIndex": "0x2e",
          "removed": false
        },
        {
          "address": "0x000000009cbe1fb4f7d7e945311234a436bd80e2",
          "topics": [
            "0x5a3e96f397e68b20a43c25f664b628805b877334dadfcc925c6c1a3ad4340458",
            "0x0000000000000000000000000000000000000000000000000000000000555556"
          ],
          "data": "0x000000000000000000000000f3e2399c5d1c698a6c1dfa195adbd12a6afd1899000000000000000000000000000000000000000000000000000000000000000900000000000000000000000000000000000000000000000000000000675e0696",
          "blockHash": "0xaebdfbe0f3a41cd36a0ec723d022047b08c8441005d22ccc0afd2de0c3d8ecd7",
          "blockNumber": "0x12553db",
          "transactionHash": "0x1f45a677083dc07112832a7f1cd6fcb19fa2a792eb0b25d9b4bd7db73ba70cd5",
          "transactionIndex": "0x1b",
          "logIndex": "0x2f",
          "removed": false
        }
      ],
      "logsBloom": "0x00000000000000000000000000000000000000000000040000000000000000000000000000000000000000000000000000000000000000000000000000000000000000000000000000000008000000000000001000800000000000000400000000000004020010002000000080000800000000000000000000000010000000000000000000000000000000000000004000000000000000000100000000000000000000000000000000000000000000000000000000000000000000000000000000000002000000000000200000000008000000000000000000000000000020000000000000000000000000000000000000000000000000000000000000000000",
      "type": "0x2",
      "transactionHash": "0x1f45a677083dc07112832a7f1cd6fcb19fa2a792eb0b25d9b4bd7db73ba70cd5",
      "transactionIndex": "0x1b",
      "blockHash": "0xaebdfbe0f3a41cd36a0ec723d022047b08c8441005d22ccc0afd2de0c3d8ecd7",
      "blockNumber": "0x12553db",
      "gasUsed": "0x24342",
      "effectiveGasPrice": "0x187b6",
      "from": "0xf3e2399c5d1c698a6c1dfa195adbd12a6afd1899",
      "to": "0x000000009cbe1fb4f7d7e945311234a436bd80e2",
      "contractAddress": null,
      "l1BaseFeeScalar": "0x44d",
      "l1BlobBaseFee": "0x1",
      "l1BlobBaseFeeScalar": "0xa118b",
      "l1Fee": "0xb8329304",
      "l1GasPrice": "0x6890095f",
      "l1GasUsed": "0x640"
    },
    {
      "status": "0x1",
      "cumulativeGasUsed": "0x7eb5e2",
      "logs": [
        {
          "address": "0x000000009cbe1fb4f7d7e945311234a436bd80e2",
          "topics": [
            "0x8be0079c531659141344cd1fd0a4f28419497f9722a3daafe3b4186f6b6457e0",
            "0x000000000000000000000000f3e2399c5d1c698a6c1dfa195adbd12a6afd1899",
            "0x000000000000000000000000000000005d5bd1cc7ff80ddcd46f245bec548edf"
          ],
          "data": "0x",
          "blockHash": "0xaebdfbe0f3a41cd36a0ec723d022047b08c8441005d22ccc0afd2de0c3d8ecd7",
          "blockNumber": "0x12553db",
          "transactionHash": "0xadde9af656a321eadc2d5e78cc814504f72a93a2c03f52b457eb1a7b5c69d33c",
          "transactionIndex": "0x1c",
          "logIndex": "0x30",
          "removed": false
        }
      ],
      "logsBloom": "0x00000000000000000000000000000000000000000000000000800000000000000000000000000000000000000000000000000000000000000000000000000000000000000000000000000000000000000001001000000000000000000000000000400004000000000000000000000000000000000000000000000000000000400000000000000000000000000000000000000000000002200000000002000000000000000000000000000000000000000000000000000000000000000000000000000000000000000000000000000008000000000000400010000000000000000000000000000000000000000000000000000000000000000000000000000000",
      "type": "0x2",
      "transactionHash": "0xadde9af656a321eadc2d5e78cc814504f72a93a2c03f52b457eb1a7b5c69d33c",
      "transactionIndex": "0x1c",
      "blockHash": "0xaebdfbe0f3a41cd36a0ec723d022047b08c8441005d22ccc0afd2de0c3d8ecd7",
      "blockNumber": "0x12553db",
      "gasUsed": "0x6fe3",
      "effectiveGasPrice": "0x187b6",
      "from": "0xf3e2399c5d1c698a6c1dfa195adbd12a6afd1899",
      "to": "0x000000009cbe1fb4f7d7e945311234a436bd80e2",
      "contractAddress": null,
      "l1BaseFeeScalar": "0x44d",
      "l1BlobBaseFee": "0x1",
      "l1BlobBaseFeeScalar": "0xa118b",
      "l1Fee": "0xb8329304",
      "l1GasPrice": "0x6890095f",
      "l1GasUsed": "0x640"
    }
  ],
  "libraries": [],
  "pending": [],
  "returns": {},
  "timestamp": 1734215335,
  "chain": 84532,
  "commit": "cb5dc5f"
}